:07ECE8007FF47E0102EBEB5B
:0DEBDE008FC4AF058FC675C5037F2C7E0167
:0BEBEB00EF1FAC0670011E4C70F622FC
:02EBF600AB076B
:10EBF8008BC412EBE0EB4401F5C475C50712ECE8D1
:02EC0800AFC695
:01EC0A0022E7
:10EC300012EBDEAF038FC675C5057FF47E0102EBD4
:01EC4000EBE8
:0D001600AE0790016AE0FFAD0612EBF62286
:0EEC8300AE05AD0790016AE0FFAB0602EC3073
:10E8950012EBDEAF038FC675C50112EBE79002FCE4
:10E8A500E0F5C675C50112ECE8A3E0F5C675C5052A
:07E8B5007FF47E0102EBEB92
:02E59100AA07D7
:10E593008AC412EBE0AF038FC675C50112EBE7EA3D
:10E5A3004401F5C475C50312ECE8AFC6EF7B00FA6E
:0AE5B30075C50512ECE8AFC6AE0214
:01E5BD00223B
:105BD9000D0A000D0A4932435B253032785D3E00DB
:105BE9000D0A577269746520253032786820746F00
:105BF900205B4164727328253032786829496E64C4
:105C09006578282530327868295D005265616420FD
:105C19005B416472733A25303278682C25303278CA
:105C2900685D202530327868000D0A2B2D2D2D2D29
:105C39002D2D2D20545032383235422F54503238C0
:105C4900353020626F6172642D52657625642E2588
:105C59003032782D2D2D2D2D2B000D0A7C2057202B
:105C6900496E6465782044617461205B6368616E84
:105C79006E656C5D202020577269746520726567B6
:105C89006973746572202020202020202020202084
:105C99002020202020207C000D0A7C205220496EE3
:105CA900646578205B6368616E6E656C5D20202099
:105CB9002020202020526561642072656769737411
:105CC9006572202020202020202020202020202034
:105CD900202020207C000D0A7C204420496E646528
:105CE9007820496E646578202020202020202020FB
:105CF90020202044756D7020726567697374657220
:105D09007320202020202020202020202020202037
:105D190020207C000D0A7C20432041646472657355
:105D29007320202020202020202020202020202017
:105D3900204368616E67652049324320416464727B
:105D4900657373202020202020202020202020205F
:105D59007C000D0A7C203C203E2020202020202091
:105D690020202020202020202020202020202052F8
:105D7900656769737465722B2B2C52656769737437
:105D890065722D2D202020202020202020207C001D
:105D99000D0A7C202F2020202020202020202020B8
:105DA9002020202020202020202020202052657023
:105DB9006561742070726576696F757320636F6DA4
:105DC9006D616E6420202020202020207C000D0A97
:105DD9007C207363616E6F6E2F7363616E6F66668D
:105DE9002020202020202020202020656E61626C48
:105DF900652F64697361626C65206175746F2064D5
:105E09006574656374696F6E20207C000D0A2B2D03
:105E19002D2D2D2D2D2D2D2D2D2D2D2D2D2D2D2DA9
:105E29002D2D2D2D2D2D2D2D2D2D2D2D2D2D2D2D99
:105E39002D2D2D2D2D2D2D2D2D2D2D2D2D2D2B00B8
:105E490049324300693263000D0A493243206669C9
:105E590072737420737472696E67004F4E006F6EAF
:105E6900000D0A493243207365636F6E64207374B1
:105E790072696E67005343414E4F4E007363616E02
:105E89006F6E005343414E4F4646007363616E6F18
:105E99006666004D454E55006D656E75005550009E
:105EA900757000444F574E00646F776E004C45463D
:105EB90054006C656674005249474854007269671A
:105EC90068740052455345540072657365740058EF
:105ED90052007872000D0A58522E2E2E0044415459
:105EE9004100646174610075736572206461746155
:105EF90020004657006677006669726D77617265A2
:105F09002000464F4E5400666F6E7400666F6E74C3
:105F190020000D0A4F4B000D0A4661696C2025646B
:105F290000203C2D20436F6D6D616E6420457272B7
:105F39006F72212100203C2D204572726F72212140
:105F4900000D0A5458203A20253032782025303265
:105F59007820253032782025303278202530327863
:105F69002025303278000D0A746F6F20666577201E
:105F7900706172616D6574657221000D0A49324361
:105F89002061646472657373203A20253032780089
:105F99000D0A4D616E75616C20666F726D617420BA
:105FA9003D2025303278000D0A4D616E75616C20F7
:105FB9006368616E6E656C203D2025303278000D76
:105FC9000A4465627567206D6F646520656E61625C
:105FD9006C65000D0A48616C66206D6F646520650B
:105FE9006E61626C65000D0A39363050206D6F6440
:105FF9006520656E61626C65000D0A42543131326B
:0960090030206F7574707574008D
:10CE5D00C188C109C103C10BC18AC104C106C10783
:10CE6D00C1024102190041021A0041017000420144
:10CE7D007A00004102020041016C0041016D004148
:0FCE8D00016F004102180041021B00C105C100E6
:10C5570090022312080AA801AC02AD037BFF2290C8
:10C56700021CE02404F582E43402F583227F0D12D5
:10C57700ECD890016BE0FF900173E0FD22E0FF7BB8
:10C58700FF900271E4F0A3EFF02290025FE0FE0457
:10C59700F0EE75F003A42423F582E43402F5830258
:10C5A700082AFFA3E4F0A3EFF02290021CE004F0B6
:10C5B700222472F582E43401F583EFF02290021C05
:10C5C700E02404F9E43402FA2290021CE0FF04F0AC
:10C5D70074042F22E490021CF0900204F022FFE47E
:05C5E700F0A3EFF022BB
:03000300020006F2
:05000600C2A8D2A832DF
:03000B0002D269B5
:10D26900C0E0C0F0C083C082C0D075D000C000C289
:10D27900AF90017AE475F0011204D0900202E00443
:10D28900F090016FE004F0D390017BE0946090018D
:10D299007AE094004014E4F0A3F090016CE004F00B
:10D2A900A3E0600414F08002D201900202E0D3945A
:10D2B9000A4008E4F0A3E0600214F0D2AFD000D035
:0AD2C900D0D082D083D0F0D0E03244
:0300130002000EDA
:05000E00C2AFD2AF32C9
:0CEC9E00C2A9C20190016DEFF0D2A922C2
:10EC4100EF600D90016CE02FFF90016CE0B507F9CA
:01EC510022A0
:0300230002DD01FA
:10DD0100C0E0C083C082C0D075D000C007C2AF30B0
:10DD11009821C298900218E0FF04F0747C2FF582DC
:10DD2100E43401F583E599F0900218E0C39486404C
:10DD310002E4F0309904C299C205D2AFD007D0D025
:07DD4100D082D083D0E03254
:03004B0002ECC8FC
:08ECC800C2AF759100D2AF321A
:03005B0002ECD0E4
:08ECD000C2AF759100D2AF3212
:10EC1E0090021BE0FF900218E0B507037F00227FF1
:02EC2E000122C1
:10EABF0090021BE0247CF582E43401F583E0FF90A3
:0DEACF00021BE004F0E0C394864002E4F076
:01EADC002217
:08ECD8002005FD8F99D20522F1
:0D004E00758921758CFF758A3875A882228E
:0FEC7400758780759850758921758DF3D28E2222
:10E1C500758780759850758922758855758A647527
:10E1D5008C64758DF375B80275A882D299D2AC7529
:10E1E500C70390FFF7747EF0A37407F090FFFA74ED
:09E1F500F8F090FFF2740FF02223
:09ECB6007BFF7A5B79D902EAF9CF
:06E90A0090022312082A0E
:10E9100090022312080A1203B96014900223E475CE
:0FE92000F0011208131203B9FEFF12ECD880E1C8
:01E92F0022C5
:0DEC91007A5B79DC90016B12C58402E3AC64
:10E4AA00900223EFF0FCA3EDF0A3EBF07BFF7A5B85
:10E4BA0079E9FF12C588EC12C5A9ED12C5A912E3C4
:0FE4CA00AC900223E0FFA3E0FDA3E0FB02EC30E7
:08E0D700900223EFF0A3EDF02D
:10E0DF0012EBF6900225EFF07BFF7A5C7914900239
:10E0EF0023E0FD900271E4F0A3EDF0900224E0FD37
:10E0FF00900273E4F0A3EDF012C5AA12E3AC900204
:03E10F0025E0FF09
:01E1120022EA
:10E23700EFC39430400CEFD394395006C3EF9430BA
:10E24700FF22EFC39461400BEFD394665005EF2490
:10E25700A9FF22EFC39441400BEFD394465005EF3B
:07E2670024C9FF227FFF2202
:10E4D900E4FD1203B9602464206020EDC454F0FD0A
:10E4E9001203B9FF12E237AE07BFFF037FFF22EE27
:0DE4F9002DFD740129F9E43AFA80D7AF0532
:01E5060022F2
:09DBD300900221EFF0A312082AD0
:10DBDC00E4900225F0A3F090022212080A1203B975
:10DBEC00FFF4602A900227EFF09000011203D2FE9E
:10DBFC00900228F0FD12EC83900223E475F00212DF
:10DC0C0004D090022574FFF5F01204D080C97F3245
:03DC1C0002EC41D6
:10CBDD007F0212EC417BFF7A5C7932E4900271F0B6
:10CBED00A3F0A3F0A37404F012E3AC7A5C796312A2
:10CBFD00CC3E7A5C79A112CC567A5C79DF12CC3EB0
:10CC0D007A5D791D12CC567A5D795B12CC4B7A5DCB
:10CC1D00799912CC4B7BFF7A5D79D712EAF97F01B6
:10CC2D0012EC417BFF7A5E791512EAF97F0102EC75
:10CC3D00417BFF12EAF97F0112EC417BFF227BFF62
:10CC4D0012EAF97F0112EC412212EAF97F0112EC8E
:02CC5D00412272
:1074FF00E4FF90025FF0900261F0A3F07B017A024B
:10750F00796390026A12082A12C5C412C59112C576
:10751F0066E0FE64206009EE600612C5B10F80EED2
:10752F00EFD394015008E490021CF07F012212C5A2
:10753F0066E07004D20E800AC20E12C5D012C56C5E
:10754F00E4F0200E4912C566E0FF7004D20E803EB3
:10755F00EFB4200812C5D012C56CE4F090021CE005
:10756F00FF12C5C87B0112C59174042FF9E43402D0
:10757F00FA12E4D990016EE004F012C5B812C56694
:10758F00E0FF642060BCEF60B912C5B180EF12C597
:10759F00577A5E7949120A80EF600D12C5577A5EED
:1075AF00794D120A80EF70357BFF7A5E795112E3C5
:1075BF00AC90022612C55A7A5E7964120A80EF6087
:1075CF001390022612C55A7A5E7967120A80EF600D
:1075DF00030277BC7BFF7A5E796A0277AE12C557DA
:1075EF007A5E797E120A80EF600D12C5577A5E7946
:1075FF0085120A80EF7005D20A0277BC12C5577A3E
:10760F005E798C120A80EF600D12C5577A5E7994FD
:10761F00120A80EF7005C20A0277BC12C5577A5E54
:10762F00799C120A80EF600D12C5577A5E79A1120C
:10763F000A80EF700612DB830277BC12C5577A5EA1
:10764F0079A6120A80EF600D12C5577A5E79A912DA
:10765F000A80EF700612EA310277BC12C5577A5EC4
:10766F0079AC120A80EF600D12C5577A5E79B112AC
:10767F000A80EF700612EA550277BC12C5577A5E80
:10768F0079B6120A80EF600D12C5577A5E79BB1278
:10769F000A80EF700612E9E90277BC12C5577A5ECD
:1076AF0079C0120A80EF600D12C5577A5E79C61243
:1076BF000A80EF700612EA0D0277BC12C5577A5E88
:1076CF0079CC120A80EF600D12C5577A5E79D2120B
:1076DF000A80EF700612EA790277BC12C5577A5EFC
:1076EF0079D8120A80EF601012C5577A5E79DB12D3
:1076FF000A80EF60030277B37BFF7A5E79DE12E3D5
:10770F00AC90026D74FFF090022612C55A7A5E7922
:10771F00E6120A80EF601090022612C55A7A5E793F
:10772F00EB120A80EF70087BFF7A5E79F0804E9043
:10773F00022612C55A7A5E79FB120A80EF6010900A
:10774F00022612C55A7A5E79FE120A80EF70087B04
:10775F00FF7A5F7901802690022612C55A7A5F79E7
:10776F000B120A80EF601090022612C55A7A5F79C9
:10777F0010120A80EF70097BFF7A5F791512E3AC64
:10778F0090026DE0C3648094807BFF40067A5F793E
:10779F001B800C7A5F792090026DE0900271F012DD
:1077AF00E3AC80097BFF7A5F792A12EAF912EC9138
:0477BF0012C5DBFF15
:0177C30022A3
:05636900900221EFF09D
:10636E0030000CE0FFB40D04C200801002664090B5
:10637E000221E0FFB43B05D200026640900221E00C
:10638E00FF640D6008EF642F6003026601EFB40D29
:10639E0002C202C200EFB42F197B017A02790412F5
:1063AE00E90A900171E090021CF0900172E09002F7
:1063BE0004F090021CE0FF12C56AE4F0900171EF48
:1063CE00F0E490021CF090016EF0C20CC20D12C5EA
:1063DE0066E0FFB4200512C5B180F3EF7002D20C57
:1063EE0090016EE012C5B81274FFEF700302669E44
:1063FE0090016EE004F012C5B1200D4D200C4A1232
:10640E00C566E0FF64206007EF6004D20D803A128B
:10641E00C566E0FFB4200512C5B180F3EF7004D25B
:10642E000C802612C5C47B0112E4D990016EE0FEE9
:10643E0004F074722E12C5BA12C566E0FF642060B5
:10644E00B8EF60B512C5B180EF300804C20DC208B6
:10645E00300D167BFF7A5F793E12EAF912EC91E469
:10646E00900171F090021CF022900172E01208DC93
:10647E0065FB3F65D343651A4465FB4864DA526495
:10648E00A95765715A65D363651A6465FB6864DA4A
:10649E007264A97765717A000065FE90016EE06402
:1064AE00037002801F90016EE0640460030266694F
:1064BE0090016BE0FF900175E0FB7D4012E4AA7F36
:1064CE000112EC4112C579A3E0FB802F90016EE022
:1064DE00B4021112ECB612C57912E0D7900174EF26
:1064EE00F002666990016EE06403600302666990D3
:1064FE00016BE0FF900174E0FB7D4012E4AA7F0186
:10650E0012EC4112C57912E0D702666990016EE075
:10651E00FDB40109900173E02408F08007EDB40288
:10652E0008900173E02407A3F0900173E09002221B
:10653E00F0900174E0FF900222E0FED39F40030230
:10654E006669EEC394FF400302666912ECB69001D1
:10655E006BE0FF900222E0FD12E0D7900222E004F1
:10656E00F080CE90016EE0D394044051900173E020
:10657E00FFA3E0FDA3E0FBA3E0900272F090017791
:10658E00E0900273F0129EF37A5F794A90017312D3
:10659E00C584900174E090027312C5E5900175E018
:1065AE0090027512C5E5900176E0FF900277E4F057
:1065BE00A3EFF0900177E0FF90027980257BFF7AC0
:1065CE005F796F802290016EE0B40208900173E053
:1065DE0090016BF07BFF7A5F798490016BE0FF9006
:1065EE000271E4F0A3EFF012E3AC02666912CBDDA8
:1065FE00026669900221E0FF24E5603924EF6037DE
:10660E0024FE604624F2602F24FE603E2436705233
:10661E0090021CE0D394004077E0FE14F074042E38
:10662E0012C56CE4F012ECD87F2012ECD890022147
:10663E00E0FF02ECD8802412C574A3E014FBF01224
:10664E00E4AA12C57912E0D7801112C574A3E00432
:10665E00FBF012E4AA12C57912E0D712EC9112C522
:10666E00DB22900221E0FF645E6004EFB42402D2CC
:10667E0002200208900221E0FF12ECD8900221E0E5
:10668E00FF90021CE0FE04F074042E12C56CEFF0B5
:01669E0022D9
:10EB2F0090017AE0FEA3E0FFC2A090017AE06E7040
:08EB3F0003A3E06F60F4D2A013
:01EB470022AB
:10E26E00E5A01313135407FFD394034007E4900261
:10E27E001FF0800690021F7401F0EF5403FF70022E
:10E28E007F0CEFB401027F0DEFB402027F02EFB4F8
:04E29E0002027F03F6
:01E2A2002259
:10D1900012E26E90021DEFF07A5F799912C5861245
:10D1A000E3ACE5A0C313540390021EF07BFF7A5F4B
:10D1B00079B0E0FF12C58812E3AC20B50BC20A7B40
:10D1C000FF7A5F79C812E3AC20B60BD20B7BFF7AF3
:10D1D0005F79DC12E3AC20B70BD2067BFF7A5F7974
:10D1E000EF12E3AC20B40BD2047BFF7A6079021219
:0DD1F000E3AC12BEBF7F0512EC4102EC91D2
:10E9300012E1C57F0A12EC4112EB2FE490021CF0A9
:10E9400012ECB67F0A12EC4112D19012CBDD7F0A95
:06E9500012EC4102EC9103
:10E5070012E9301285ED90016AE0A3F012EC1EEFDC
:10E51700600612EABF12636930010E7F6412EC9E37
:0EE52700300A0312426712BE0812EADD80DEDF
:10EC52003031323334353637383941424344454610
:01EC620000B1
:10CCE10090029CE475F0011208131203B99002A29C
:10CCF100F02290029FE475F0021208131204E6FF7D
:10CD0100AEF0229002A41207A99002A90207B590E1
:10CD110002A91207A9E47B0AFAF9F81205FD9002AB
:10CD2100A90207C19002A8E0FF9002A3E0FD33959C
:10CD3100E0FCC3ED9F7480F86C98229002A4020776
:10CD4100C1E475F0011208130203B912080A0203C3
:10CD5100B975F0041208130207899002A40207A909
:067A890090029C12082A85
:107A8F009002A91207CD0000000112CCE170030291
:107A9F007CD824DB701390029C12CD4CB425179028
:107AAF00029DE475F0011204D02005FD9002A2E0C2
:107ABF00F599D20580D4C20FC210E49002A8F090BD
:107ACF00029C12CCE5E0FDB43008D20F12CCE1E0FD
:107ADF008015C3ED648094B040169002A2E0FFD3EE
:107AEF00648094B9500AEF24D09002A8F012CCE130
:107AFF00C2119002A2E0FF646C6004EFB44C051257
:107B0F00CCE1D2119002A2E024A87003027C2324BE
:107B1F00F57003027CB314601524F17003027C86A8
:107B2F0024FB7003027C2324346003027CCC90027C
:107B3F009FE430110512CD52800612CCF7E4FCFD04
:107B4F0012CD3C9002A8E0703F12CD5BEC4D4E4F32
:107B5F00700B2005FD759930D205027A99E49002D9
:107B6F00A8F0A31207CD0000000112CD0412068861
:107B7F00E4FBFAF9F8C312073E600D12CD10900224
:107B8F00A8E004F0E0B409E2E49002A3F09002A9A7
:107B9F001207CD0000000112CD25500B12CD109011
:107BAF0002A3E004F080F012CD04120688AC00AD01
:107BBF0001AE02AF0312CD3C9002A91207A9E47BDC
:107BCF000AFAF9F812068812CD1F12CD0412068890
:107BDF00EF2430FF9002A2F0BF301A200F17E47F7E
:107BEF0001FEFDFC12CD0AC312073E60089002A2EF
:107BFF007420F08002D20F2005FD9002A2E0F599CB
:107C0F00D205E47F01FEFDFC12CD0AC312073E70C0
:107C1F0096027A9990029FE430110512CD52800698
:107C2F0012CCF7E4FCFD12CD3C9002A8E070037477
:107C3F0004F0E49002A3F012CD254003027A9920BC
:107C4F0005FD9002A3E0FF9002A8E0C39F1425E07A
:107C5F0025E0F912CD5BA8011207627E00EF540FE9
:107C6F002452F582EE34ECF583E493F599D2059026
:107C7F0002A3E004F080C090029FE475F0031208A5
:107C8F00131208339002AD12082A9002AD12CD4C98
:107C9F007003027A992005FD9002AD12CD42F5993D
:107CAF00D20580E612CCF3EE3395E0FDFC12CD3C0D
:107CBF002005FD12CD5B8F99D205027A9912CCF374
:097CCF00E4FCFD12CD3C027A999F
:017CD8002289
:06E3AC0090026E12082A27
:10E3B2007B017A02797190029912082A90029912CD
:10E3C200080A90029F12082A90026E12080A127A14
:0DE3D200897B007A00790090029902082AE8
:10EAF90090026E12082A90026E12CD4C600C9002A0
:0BEB09006E12CD42FF12ECD880EC220F
:10E8E3004D44494E3378785F47657443686970498E
:10E8F30044203D203078253034580A0D00000000B4
:07E90300000000000000000D
:10CE9C004202B800004202BA00004202B600004250
:10CEAC0002C400004202C200004202C60000C114CB
:102A5900900231E0FEA3E0900272FFEE3395E0FDB3
:102A6900FC1207B50205FD90022A12080A9000021D
:102A7900EF12041190022712080A90000A020511A8
:102A8900900229E4F07430A3F0A312080AE9240A99
:102A9900F9E43AFA1204E6FFE5F02290026DE4F057
:102AA900740FA3F0A3E4F0A304F0A3E4F0A304F0EB
:102AB90022FFEE900271F0A3EFF07FC22290026A2A
:102AC9001207A9EF2480FFEE34FFFEED34FFFDEC81
:102AD90034FFFCE47B02FAF9F81205FDA804A90504
:102AE900AA06AB07900251E0FEA3E0FFEE3395E0A2
:102AF900FDFC22C39FFFE49EFEE4FCFD90026912E7
:102B090007C190026DE4F0A322E490026DF0A3F0F6
:102B1900A3F07408A3F090022712080A9000060295
:102B29000511E92408F9E43AFA02082A12080AE91F
:102B39002410900287F9E43AFA02082A7408F0A3EB
:102B4900E4F07402A3F0A20EE4FF33A3CFF0A3EFE5
:102B5900F07FC022F9E43AFA90022712082A90027B
:102B69002412080AE9241B90022AF9E43AFA020815
:102B79002AE490026DF0A3F0A3F0A322900224129C
:102B8900080A9000030203D290022A12080AE924D3
:102B990006F9E43AFA0204E6FBE0FEA3E0FF740555
:102BA900C39FFFE49EFEE4FCFD90027C1207C190E6
:102BB9000280EAF0A3EBF07FC22212080A90000C0F
:102BC900120511FF90022D02080AE924D2F9E43A0C
:102BD900FA02082A78111207627B007AF879FF78DD
:102BE900FFD3020728E924BFF9E43AFA02082A7850
:102BF90011120762E47BFF7A07F9F8C302072890EC
:102C090002BCE0FEA3E0FF900236EE8FF01204D082
:102C190090022A02080A1203D290023DF09002366D
:102C2900E0FFA3E090023ECFF0A3EFF09002240270
:102C3900080AE5F09000048FF00205B5E92441F98E
:102C4900E43AFA02082AE924BFF9E43AFA02082A1E
:102C5900FFE5F08FF00205B5E924D2F9E43AFA026A
:102C6900082A7F089002217E007D0002080A1208C6
:102C79000A90028712082A90028A2290022B1208CF
:102C89000A900002020511E92441F9E43AFA02081E
:102C99002AF0A3E4F0A37402F0A3E4F0A37403F010
:102CA9002290022712080A900004020511FDE5F09E
:102CB90054034EFEEDFFEEF0FAA3EFF0229002214D
:102CC90002080AF0E4A3F0A3F07FC2227BFF7A1086
:102CD900798190024112082A90022E02080A25E001
:102CE900FFE033FEC3740990027C9FFFE49EFEE47B
:102CF900FCFD0207C112080A900032120511FFAE4D
:102D0900F022E924D2F9E43AFA02082A90022412BC
:102D1900080A9000010203D290022D12080A9000BD
:102D29002A12051125E0FFE5F033FE900022120575
:102D390011D39FE5F09E22900230ECF0A3EDF0EF65
:102D49007E0022E924BFF9E43AFA02082A7408F05D
:102D5900A3E4F0A322C313FEEF13FFEE8FF00205E5
:102D690096FFE5F08FF002059690022712080A02F5
:102D790003B9E924ABF9E43AFA02082A900248E0D7
:102D8900FEA3E0FFFBAA06E4900250F9F81207A996
:102D9900020688EE540FF0A3EFF022EE900232F013
:102DA900A3EFF0229002B3E05401FF900271E422F4
:102DB900E0FFA3E090028022F0900229E0FFA3E067
:102DC9009002712290022A12080AE9240622EE547E
:102DD9000FF0A3EFF022E92441F9E43AFA02082AB4
:102DE900900005EF1204117402900006120411906C
:102DF90000072212080AE92408F9E43AA801FCADFF
:102E09000322900227E0FEA3E0FF7C000204339036
:102E19000227E04EFEA3E04FFF900227EEF0FAA34F
:102E2900EFF0FB22C39F90026EF0E49E90026DF0DA
:102E390090026F221205E2900266221205EF9002BB
:102E4900662290022402080A90022402080A9002CB
:102E590028E090022725E0FFE033FE22EF541FFF10
:102E6900E4900271F0A3EFF07FC222FD90022402E8
:102E7900080AFFE43401FE90027CE4FCFD0207C16C
:102E8900740CF0A3E4F0A37404F0227A0379177B9D
:102E99000190027A02082A900229E04EF0A3E04F3D
:102EA900F0227D017E007F20020393900229E4F045
:102EB900A322900010120853E94A4B22A3E0C3133E
:102EC900F0A3E013F022EE540FF0A3EFF0227D0CF3
:102ED9007C00AF03AE02020445900227E4F0A3226E
:102EE9007402F0A3E4F0A3740222EEF0A3EFF090D1
:102EF900023CE05403227E007F08020393900228DB
:102F0900E02402FE900227E0340090026DF0A3CE87
:102F190022F9E43AFA02082A7E00CFCDCFCECCCEF0
:102F2900120445EF24FFFFEE34FFFE22900227E052
:102F3900FEA3E0780322120511FF900280E5F0223A
:102F490090031002080A12080AE94A4B229002C8A3
:102F5900E0FEA3E0FF22EEF0A3EFF0A3ECF0A3ED77
:102F6900F0A3EAF0A3EBF022F090022B02080AFF8B
:102F790090026DEEF0A3EFF0A3E4F0A37407F02242
:102F8900E4A3F0A3F07FC02212080A900002020312
:102F9900D2EE540FF0A3EFF02244028FF00205960F
:102FA900900227E04CF0A3E04DF022E4900280F07B
:102FB900A3F022E490026DF0A3F0A3229002240270
:102FC900080AE0C4F854F0C8A3E0C4540F4822909A
:102FD900022712080AA801AC02AD0322FF7E00E411
:102FE900FCFD0207C1900280E4F0A322120853EA13
:102FF900494B2290022D12080A90002A2290024A77
:10300900E0FEA3E0FFFBAA06E422AC00AD01AE029C
:10301900AF03EC4D4E4F221205E29002500207C158
:10302900E4900229F0A3F022F9E43AFA020A9DE9B0
:1030390024BFF9E43AFA227E007F13120393900227
:1030490027227405F0D3EB9408EA9400229002B287
:10305900E0FEA3E0F4FFEF22E49002CAF0A3F090AF
:1030690002CE22120511FF900271E5F02212080A20
:1030790090001002085390022A02080A1207FEE47F
:1030890093FE7401932290001802051112080A9008
:10309900003002051190022402080A90022A12083F
:1030A9000AE92404229002500207A9900313020896
:0130B9000A0C
:10AE7200900260122F5F900260E0FEA3E0FF90025A
:10AE8200C4E0B50630A3E0B5072B900262E0FEA352
:10AE9200E0FF9002C2E0B5061CA3E0B507179002DE
:10AEA20064E0FEA3E0FF9002C6E0B50608A3E0B5A9
:10AEB20007037F00229002691207CD0000002012D2
:10AEC2002FBC122AAF7FC012B16DEF60037F012247
:10AED20090027C1207CD0000002C900260122DB966
:10AEE200122B5512E412EF60037F012290027C12B2
:10AEF20007CD0000002E900262122DB9122B5512BE
:10AF0200E412EF60037F012290027C1207CD000061
:10AF12000030900264122DB9122B5512E412EF6028
:10AF2200037F01229002691207CD00000020122B3C
:10AF32007A04F0122F8912B16DEF60037F01229023
:10AF42000260E0FFA3E09002C4CFF0A3EFF0900212
:10AF520062E0FFA3E09002C2CFF0A3EFF0900264A0
:0FAF6200E0FFA3E09002C6CFF0A3EFF07F002244
:10C68100900228122F5F9002691207CD000000204E
:10C69100122B0B04122AAC7FC012B16DEF60037F25
:10C6A100012290027C1207CD000000329002281274
:10C6B1002DB9122B5512E412EF60037F0122900273
:10C6C1007C1207CD0000003490022CE0FEA3E0783C
:10C6D10007C333CE33CED8F9FF90022AE04EFEA332
:10C6E100E04FFF900280EE122B5612E412EF60032E
:10C6F1007F01229002691207CD0000002090026D97
:10C70100122AAE122F8912B16DEF60037F01227FD1
:02C71100002204
:10BD4A00900224122CBFFB9002691207CD0000005A
:10BD5A0099122B7A740DF0A3122BBB12B16DEF60FE
:10BD6A00037F01229002691207CD00000143122BC2
:10BD7A007A740BF0900224E0FFA3E0CF122ABC12DF
:10BD8A00B16DEF60037F01229002691207CD0000B6
:10BD9A000099122B0B740F122AB2122CCD12B16D0C
:10BDAA00EF60037F01229002691207CD0000014370
:10BDBA00122B0B740B122AB2122CCD12B16DEF603A
:10BDCA00037F01229002691207CD00000099122A0E
:10BDDA00A47FC212B16DEF60037F01229002691243
:10BDEA0007CD0000014390026DE4F0740B122AABF8
:0EBDFA007FC212B16DEF60037F01227F002235
:06880B0090022412082A6D
:10881100122F94FF14602B14602E1460271460260D
:1088210014602324057032122FC5900227122B2BBE
:10883100122FC5E9240890022A122B3ED20CD20D28
:108841008024801580138002800F122FC5E9241B1C
:10885100122B5DC20CC20D800D122FC5E924081226
:108861002B5DD20CC20DEFB4031D9002691207CD2E
:108871000000003C122B0B740B122AAC7FC012B10A
:108881006DEF60217F01229002691207CD00000087
:108891003C122B0B740B122AB2122F8912B16DEFFD
:1088A10060037F01229002691207CD000000471288
:1088B1002B0B7404122AB2A20C122B5112B16DEFC0
:1088C10060037F01229002691207CD000000471268
:1088D1002B0B7405122AB2A20D122B5112B16DEF9E
:1088E10060037F0122122B85B40403D38001C3925C
:1088F1000E9002691207CD00000048122B0B122BBB
:108901004512B16DEF60037F0122122B85B4040380
:10891100D38001C3920E9002691207CD0000004975
:10892100122B0B122B4512B16DEF60037F01221246
:108931002B85B40403D38001C3920E900269120700
:10894100CD00000048122B0B7403122B4712B16D9E
:10895100EF60037F0122122B85B40403D38001C38E
:10896100920E9002691207CD00000049122B0B7480
:1089710003122B4712B16DEF60037F012290022792
:10898100122D18FF6406600EEF64086009EF64079A
:108991006004EFB40904D20E8002C20E122B85B41A
:1089A1000402D20E9002691207CD00000048122B7A
:1089B1000B740DF0A3E4F07403122B4D12B16DEFA3
:1089C10060037F012290022A122D18FF6406600EB7
:1089D100EF64086009EF64076004EFB40904D20E84
:1089E1008002C20E122B85B40402D20E90026912CB
:1089F10007CD00000049122B0B740DF0A3E4F0A386
:108A01007403122B4E12B16DEF60037F01227F00C0
:018A11002242
:0E4D960090022412082A900227ECF0A3EDF000
:104DA400E4A3F0A3F0ED64014C900224700812080F
:104DB4000AE92408800612080AE9241BF9E43AFAED
:104DC40090022B12082A1203B9FEC3941540037FE4
:104DD4000322EE75F008A424F3F9741F35F0FA7B6E
:104DE400FFC003C002C00190022B122DFCD001D0E1
:104DF40002D003122EFF300B18122F72E92408126E
:104E04002A99122D5E122F72E9240C122A99122D5E
:104E14005E90022B122A9354EE8FF01205969002A4
:104E24002B122D7524FC500B601014600D24FB50C4
:104E3400098011122A964410801090022B122A9392
:104E44004411800690022B122A938FF0120596903B
:104E5400022B122A9354D18FF012059690022B1232
:104E64002D181208DC4E8B004E96014EA3024EAB59
:104E7400034EBA044EC2054ECE064EDA074EE6087D
:104E84004EF20900004F01123029122A9644020200
:104E94004EFCE4900229F0122A90440A024EFC12BD
:104EA4002A89440E024EFC900229E4F07410122A5E
:104EB40090440E024EFC122A89440C024EFC122E1F
:104EC400B47410122A91440C802E122EB474201241
:104ED4002A91440E8022122EB474A0122A91440EF8
:104EE4008016122EB47420122A91440C800A122EB9
:104EF400B474A0122A91440C8FF0120596122C84DB
:104F040030E3047F0180027F00EF7E0060047F4075
:104F140080027F00122EA0122A83FF30E0047D015C
:104F240080027D00ED7C0060047D0480027D0090A1
:104F34000229122FACEF30E1047F0180027F00EFE1
:104F44007E0060047F0280027F00122EA0A3122A3A
:104F54008030E4047F0180027F00EF7E0060047FE4
:104F64000180027F00122EA09002691207CD00007A
:104F74000002122F35C333CE33CED8F9FF740C128E
:104F84002E2D122E8D900229122FCB540FFF90023A
:104F940071E4122ABF12B16DEF60037F0122900207
:104FA400691207CD00000002122F35C333CE33CE71
:104FB400D8F9FF7408122E2D122CA390022AE05463
:104FC40007FF900271E4122ABF12B16DEF60037FF4
:104FD40001229002691207CD00000001900227E02F
:104FE400FFA3E090026DCFF0A3EF122AB2122C843B
:104FF4007E0030E6047F0180027F00122ABB12B1DA
:105004006DEF60037F01229002691207CD0000005A
:1050140001122F06122AB2122C847E0030E5047F7E
:105024000180027F00122ABB12B16DEF60037F0181
:10503400227D19122E0BC3741A9FFFE49EFEE41204
:105044002B047404F0A3E4F0A3740C122F719000E9
:105054000812306C122ABF12B16DEF60037F012277
:105064009002691207CD000000007D03122E0BEFA1
:105074002408FFE43E90026DF0A3EF122CA1122C41
:10508400845407FF900271E4122ABF12B16DEF60DD
:10509400037F01229002691207CD00000000122F45
:1050A40006122AB2122C847E0030E4047F018002AE
:1050B4007F00122ABB12B16DEF60037F01229002C0
:1050C40024122B8824FB6003047008900229122CFC
:1050D400A3801B900229A3E0C4540F7E0030E10496
:1050E4007F0180027F00900229EEF0A3EFF090028E
:1050F400691207CD00000040122E57C3740E122E01
:105104002EE4F0A37402122DC1CF122ABF12B16D86
:10511400EF60037F0122900227E0FEA3E0FF7421E9
:10512400122AFC740D122AB290022B122A80E5F086
:105134007E0030E1047F0080027F01122ABB12B19D
:105144006DEF60037F01229002691207CD00000019
:1051540003122F35C333CE33CED8F9122F789002F1
:105164002B122B22AEF07806CEC313CE13D8F9122D
:105174002ABA12B16DEF60037F012290022B122B29
:1051840022543F25E025E0FE122CB0900229122C77
:10519400B6900227122BA112E412EF60037F0122C2
:1051A400122E577408122AFC740D122CA190022B93
:1051B400122CADE5F01313543FFF900271E4122A50
:1051C400BF12B16DEF60037F0122122E57C3740822
:1051D400900269122CF3122B7A740D122F71900025
:1051E4000C12306C122ABF12B16DEF60037F0122E2
:1051F400900228E0900227122CE7122F7290000EE2
:10520400122F3F122ABF12E412EF60037F01229093
:105214000224122B887E00B405047F0280027F00E2
:10522400900229122CBFFB9002691207CD000000E6
:105234001B122B0B122D567402F0A3122BBB12B1AE
:105244006DEF60037F0122900224122B88FFB405C6
:1052540008122EB47405F0800FEFB40408122EB4B3
:10526400740FF080031230299002691207CD0000F8
:10527400001E122B0B122D567404122DC1CF122AAC
:10528400BF12B16DEF60037F0122900224122B88BC
:10529400FFB405028004EFB40407122EB404F080B6
:1052A400031230299002691207CD0000001E122B50
:1052B4000B7404122AB2122DC2CF122ABF12B16D7E
:0852C400EF60037F01227F006F
:0152CC0022BF
:06B9580090022412082AEF
:10B95E00E924BF900227122B73900224122F9124F8
:10B96E00FD50028020E92408F9E43AFAC003C0022F
:10B97E00C001122FD8D001D002D003123040122AAB
:10B98E00934420802490022412080AE9241BF9E42F
:10B99E003AFAC003C002C001122FD8D001D002D093
:10B9AE0003123040122A9354DF8FF0120596900244
:10B9BE00691207CD00000040122B0B7403122AB23D
:10B9CE00900227122A80E5F07E0030E5047F018088
:10B9DE00027F00122ABB12B16DEF60037F0122902D
:10B9EE0002691207CD00000040122B0B7402122ABE
:10B9FE00B2122CCD12B16DEF60037F01229002695D
:10BA0E001207CD00000040122B7A04122CCC12B17A
:09BA1E006DEF60037F01227F003F
:01BA270022FC
:06669F0090022412082AFB
:1066A500E4900227F0A3F0E92441F9E43AFAA312B1
:1066B500082A1203B9FEC3941340037F0322EE7523
:1066C500F008A42493F9742035F0FA7BFFC003C0C9
:1066D50002C001900229122DFCD001D002D0031274
:1066E5002EFF900229122A9354EEFEEF54DF122D4D
:1066F50063900229122D7524FC500A24FA500D24AA
:10670500F750098017122A96441080169002291214
:106715002A934411FEEF4420FFEE800690022912D1
:106725002A938FF0120596900229122A9354F18F1D
:10673500F0120596900229122D181208DC675E00EA
:10674500677001677D02678A0367960467A205671C
:10675500AE0667BA07000067C99002277402F0A366
:106765007404F0122A9644020267C4122EE274449D
:10677500122A91440A0267C4122EE2746D122A91FC
:10678500440E0267C4122EE27445122A91440E800B
:106795002E122EE27469122A91440C8022122EE2E6
:1067A5007441122A91440C8016122EE2746E122A3C
:1067B50091440E800A122EE2746A122A91440C8FBB
:1067C500F0120596900229122C877E0030E4047F92
:1067D5001080027F00EF4428FF900227E04EFEA3C1
:1067E500E04F122E219002691207CD000000A2127F
:1067F5002B7A740AF0A3122BBB12B16DEF60037FE5
:106805000122900229122C87AAF0EA540C90022743
:10681500F0A3E4F0EA54F0C4540FFF900227E0F02F
:10682500A3E04FF0A3122C877E0030E7047F808021
:10683500027F00900227122EA3122A83FF7C0030CC
:10684500E2047D2080027D00122FA9EF7E0030E357
:10685500047F1080027F00122E189002691207CD66
:10686500000000A0122B7A740AF0A3122BBB12B100
:106875006DEF60037F0122900229122C877E003084
:10688500E5047F1080027F00900227EEF0A3EFF071
:10689500122A83AEF0EE7C0030E0047D0280027D9A
:1068A50000122FA9EE7E0030E3047F0580027F00F1
:1068B500122E1890027C1207CD000000A3122BB8EF
:1068C50012E412EF60037F0122900229122A80E56B
:1068D500F07E0030E3047F8080027F009002271263
:1068E5002CBFFB90027C1207CD000000A4122BB830
:1068F50012E412EF60037F0122900224122B88FF1D
:10690500B404059002278007EF900227B40508E438
:10691500F0A37402F08005E4F0A304F0900269127C
:1069250007CD000000A5122B0B122D567402F09016
:106935000227122DC5CF122ABF12B16DEF60037F5A
:106945000122900224122D187E0030E2047F01807E
:10695500027F00900227122CBFFB9002691207CD1F
:10696500000000A5122B0B7407122AB2A3122BBB31
:1069750012B16DEF60037F01229002691207CD000D
:106985000000A5122B0B7405122AAC7FC212B16D43
:08699500EF60037F01227F0087
:01699D0022D7
:06BC890090022412082ABB
:10BC8F00900227122BEE90022412080A90022A1219
:10BC9F002C45900227122A80FFAEF0EE30E3109071
:10BCAF00022A122A80E5F07BFF7A0C79218022EE9E
:10BCBF0030E01090022A122A80E5F07BFF7A0B7990
:10BCCF0061800E90022A122A80E5F07BFF7A0B79B1
:10BCDF002190024D12082A782D7C027D0190024D91
:10BCEF0012080A122EAD900227122A80E5F07E016B
:10BCFF0030E3047FFC80027FF890024BEEF0A3EF5D
:10BD0F00F0122EBB600D900227123076782D7C0238
:10BD1F00122EAB9002831207CD0000000A7B017A2E
:10BD2F0002792D122C7A1207CD000000207FC2124B
:0ABD3F00E342EF60037F01227F0062
:01BD490022D7
:0630BA0090022412082A16
:1030C000900227122BEE90022412080A90022A1274
:1030D0002C45900227122A80E5F030E02790022A42
:1030E000122A80FFAEF0EE30E3117BFF30E0067A6B
:1030F0000C7921802B7A0C79618025EE7BFF7A0B8D
:1031000079E1802590022A122A80FFAEF0EE30E3AA
:10311000117BFF30E0067A0C794180047A0C79212A
:103120008007EE7BFF7A0B79A190025F12082A7864
:103130003F7C027D0190025F12080A122EAD123010
:103140007F900013122EBE601012307F9000131279
:103150000853783F7C02122EAB12307F900006128B
:1031600003D2FF7E00900266122E839000051203A8
:10317000D2900262122FE59000041203D290026AEC
:10318000122FE59000071203D2FB75F002900C811C
:10319000123085122AF490026E1207C175F002EB0C
:1031A000900E81123085122AF49002721207C1E447
:1031B000FDFCED25E0FFEC33FE743F2FF582740239
:1031C0003EF583E0FEA3E0FBAA06ED25E0FFEC332D
:1031D000FE742D2FF58274023EF583EAF0A3EBF026
:1031E0000DBD00010CED64094C70C790022DE0FE8E
:1031F000A3E0900262122A637807122BFA50067F2E
:10320000FF7E07802A90022D122AF0900262122A75
:103210006A7807122BDF40067F007EF8801190024B
:103220002D122AF0900262122A6A78071207629021
:10323000023F122D9C122A59C004C005C006C007C7
:1032400090022F122AF090026E122A6AD003D00246
:10325000D001D000122E3D122A6A122BF850077F9F
:10326000FF7E070232C0122A59C004C005C006C042
:103270000790022F122AF090026E122A6AD003D011
:1032800002D001D000122E3D122A6A122BDD400618
:103290007F007EF8802A122A59C004C005C006C0EB
:1032A0000790022F122AF090026E122A6AD003D0E1
:1032B00002D001D000122E3D122A6A781112076244
:1032C000900241122D9C90022F122A5CC004C0056E
:1032D000C006C007900231122AF090026E122A6ACC
:1032E000D003D002D001D000122E44122A6A122B31
:1032F000F850077FFF7E0702335A90022F122A5C94
:10330000C004C005C006C007900231122AF0900226
:103310006E122A6AD003D002D001D000122E4412BD
:103320002A6A122BDD40067F007EF8802D90022F46
:10333000122A5CC004C005C006C007900231122AE0
:10334000F090026E122A6AD003D002D001D000128F
:103350002E44122A6A7811120762900243122DD766
:10336000900233122AF0900262122A6A7807122B16
:10337000FA50067FFF7E07802A900233122AF090CF
:103380000262122A6A7807122BDF40067F007EF85D
:103390008011900233122AF0900262122A6A780792
:1033A000120762900245122DD7900237122A5CC094
:1033B00004C005C006C007900235122AF090026EC4
:1033C000122A6AD003D002D001D000122E3D122A58
:1033D0006A122BF850077FFF7E0702343D900237B8
:1033E000122A5CC004C005C006C007900235122A2C
:1033F000F090026E122A6AD003D002D001D00012DF
:103400002E3D122A6A122BDD40067F007EF8802DA9
:10341000900237122A5CC004C005C006C0079002A3
:1034200035122AF090026E122A6AD003D002D0011F
:10343000D000122E3D122A6A7811120762900247BC
:10344000122ECF900235122A5CC004C005C006C0FF
:1034500007900237122AF090026E122A6AD003D027
:1034600002D001D000122E44122A6A122BF8500703
:103470007FFF7E070234D7900235122A5CC004C059
:1034800005C006C007900237122AF090026E122A79
:103490006AD003D002D001D000122E44122A6A1240
:1034A0002BDD40067F007EF8802D900235122A5CCD
:1034B000C004C005C006C007900237122AF090026F
:1034C0006E122A6AD003D002D001D000122E44120C
:1034D0002A6A7811120762900249122ECF9002399F
:1034E000122AF0900262122A6A7807122BFA50060A
:1034F0007FFF7E07802A900239122AF09002621222
:103500002A6A7807122BDF40067F007EF880119030
:103510000239122AF0900262122A6A7807120762B0
:1035200090024B122F9A90023D122A5CC004C005F3
:10353000C006C00790023B122AF090026E122A6A5F
:10354000D003D002D001D000122E3D122A6A122BD5
:10355000F850077FFF7E070235BA90023D122A5CC1
:10356000C004C005C006C00790023B122AF09002BA
:103570006E122A6AD003D002D001D000122E3D1262
:103580002A6A122BDD40067F007EF8802D90023DD6
:10359000122A5CC004C005C006C00790023B122A74
:1035A000F090026E122A6AD003D002D001D000122D
:1035B0002E3D122A6A781112076290024D122F9A3C
:1035C00090023B122A5CC004C005C006C0079002EE
:1035D0003D122AF090026E122A6AD003D002D00166
:1035E000D000122E44122A6A122BF8500AE47FFFF0
:1035F0007E07FDFC02365B90023B122A5CC004C0D1
:1036000005C006C00790023D122AF090026E122AF1
:103610006AD003D002D001D000122E44122A6A12BE
:103620002BDD400A7F007EF87DFF7CFF802D90021D
:103630003B122A5CC004C005C006C00790023D12C0
:103640002AF090026E122A6AD003D002D001D00074
:10365000122E44122A6A7811120762EE540F900259
:103660004FF0A3EFF0122AC61205E2122BFD500A0A
:10367000E47FFF7E07FDFC023695122AC61205E2A2
:10368000122BE2400A7F007EF87DFF7CFF8006124D
:103690002AC61205E2EE540F900251F0A3EFF0900B
:1036A00002831207CD000000727B017A02793F127B
:1036B0002C7A1207CD000000207FC212E342EF6097
:0636C000037F01227F00E0
:0136C60022E1
:09ECBF0090022412082A7F0022B1
:0683BB0090022412082AC2
:1083C10090025A122C9090022412080AE924729009
:1083D100025D122F1A90025A122D7575F030A424E5
:1083E10063F9741C35F0FA7BFF90025712082A904A
:1083F100025A12080A122EBB600C90025A123076F1
:1084010090025712082A78277C027D0190025712A8
:10841100080A7E007F3012039390025A122A80309C
:10842100E4067E007F0080047E807F009002491276
:108431002EA3122D1BFF64066005EF6407704790A1
:10844100022EE025E0F090022DE033F090024F1271
:108451002EC6900230E025E0F090022FE033F0903C
:108461000232E025E0F0900231E033F0900234E096
:1084710025E0F0900233E033F0900236E025E0F0A1
:10848100900235E033F0900224122B886404705777
:1084910090025D122D7575F030A42487F9741C3596
:1084A100F0FA7BFF784B7C027D017E007F06120390
:1084B1009390025D122D75FF640D6009EF640E60EB
:1084C10004EFB4100A90022D7404F0A3743AF0EF93
:1084D100640F6009EF64116004EFB4120A90022D79
:1084E1007404F0A37442F0900224122B88B4050C9A
:1084F10090022D122EC6122EC5122EC59002831285
:1085010007CD000000847B017A027927122C7A12B0
:1085110007CD000000067FC212E342EF60037F0136
:10852100229002831207CD000000887B017A027934
:108531002D122C7A1207CD0000001E7FC212E342D9
:10854100EF60037F01229002691207CD00000097BE
:10855100122B0B122EE9122AB27FC212B16DEF60FB
:10856100037F012290025A122C877E0030E6047F9D
:108571000180027F00EE44D0AB07FA90027C120723
:10858100CD00000098AF03900280EA122ABF12E4E6
:1085910012EF60037F012290027C1207CD000000E0
:1085A1009A122FEE7410F07FC212E412EF60037F73
:1085B100012290027C1207CD0000009B7480122FD3
:1085C100B57FC212E412EF60037F012290024BE0FB
:1085D100FEA3E0FFA3E0FCA3E0FDA3E0FAA3E0FB20
:0B85E10012AE72EF60037F01227F00EA
:0185EC00226C
:10EB480090005A12051145F0600A90005C120511F8
:09EB580045F07003C38001D322D3
:10EB610090006212051145F0600A900064120511CF
:09EB710045F07003C38001D322BA
:10EB7A0090006A12051145F0600A90006C120511A6
:09EB8A0045F07003C38001D322A1
:06E6450090023412082AC5
:10E64B00900237122BD3900234122B22FFAEF04ED6
:10E65B00600F900237122CADFDD3EF9DEE95F0407D
:05E66B0003C38001D390
:01E670002287
:0648270090022412082A91
:10482D00900227122C4F122E4B90022A122C90120E
:10483D002E4B90022D122C61900227122A80E5F04A
:10484D007E0030E5047F0180027F00900232EEF0A1
:10485D00A3EFF07F40900224122C70E924D2123085
:10486D0031900227122BC3900018122C5A90022758
:10487D0012080A90000E122BC990001A122C5A120F
:10488D002E4B12EB485022122E4BE9245AF9E43AE2
:10489D00FAC003C002C001122BCDE92418122E025A
:1048AD00D001D002D003122EFF90022712080A90D9
:1048BD000004122BC990001CE5F08FF012054990F1
:1048CD000227122B22122BCC90001EE5F08FF01236
:1048DD00054990022A122BC3900028122C5A9002DF
:1048ED002A12080A90000E122BC990002A122C5A77
:1048FD00122E4B12EB7A5022122E4BE9246AF9E458
:10490D003AFAC003C002C001122BCDE92428122EA1
:10491D0002D001D002D003122EFF900224122B8858
:10492D00B4050C122BCDE92428122A99122D5E12F2
:10493D002BCD12308F122D6A122BCD90001A12052D
:10494D0011900002122C5912308FFF122C3B900047
:10495D001A120511900006122C59900028122D04E0
:10496D00900018122D374007122BCDEE122C3D1250
:10497D002E4B12E645500C900224122B22122BCCFA
:10498D00122C3B122BCD122CB0FF900030122C5A52
:10499D00122B25FF900032122C5A122CB0FF9000D2
:1049AD0020122C5A122B25FF900022122C5A122E57
:1049BD004B12EB615022122E4BE92462F9E43AFAC4
:1049CD00C003C002C001122BCDE92420122E02D04B
:1049DD0001D002D003122EFF122BCD900020120514
:1049ED0011FF900008122C5A900022120511FF9011
:1049FD00000A122C5A900028120511FF90000C127B
:104A0D002C5A90002A120511FF90000E122C5A906C
:104A1D000020120511FF900010122C5A9000221246
:104A2D000511FF900012122C5A900028120511FF4B
:104A3D00900014122C5A90002A120511FF900016A6
:104A4D00122C5A9002691207CD0000000390023219
:104A5D00122F38C333CE33CED8F9122F7890001ED3
:104A6D00120511AEF07806CEC313CE13D8F9122A63
:104A7D00BA12B16DEF60037F0122122BCD90001E93
:104A8D00120511543F25E025E0FE90001C12051182
:104A9D00900230122CB6A3122BA112E412EF600378
:104AAD007F0122122BCD90001C120511E5F054FC54
:104ABD00FEE47803C333CE33CED8F9FF12308FFD29
:104ACD00EE45F0FEEF4DFF900230122CBFFB900231
:104ADD0033E0900232122E5E7408122BA912E412EA
:104AED00EF60037F0122900233E0900232122CE737
:104AFD00122BCD90001A122F3F122ABF12E412EF83
:104B0D0060037F01229002831207CD000000321254
:104B1D002BCDE92420122B3B90028A1207CD0000E9
:104B2D000008124D8F60037F01229002831207CD82
:104B3D0000000036122BCDE92428122B3B90028A5F
:104B4D001207CD00000008124D8F60037F012290E7
:104B5D00027C1207CD0000003A122BCD1204E61292
:104B6D002F42122ABF12E412EF60037F012290023E
:104B7D007C1207CD0000003C122BCD122CB0122F51
:104B8D0042122ABF12E412EF60037F012290027CD1
:104B9D001207CD0000003D90022D122B22122F4244
:104BAD00122ABF12E412EF60037F012290028312DA
:104BBD0007CD00000108122BCD900287122B2B90F0
:104BCD00028A1207CD000000087FC212E342EF6097
:104BDD00037F01229002831207CD0000010C900289
:104BED002D122B3590028A1207CD000000087FC2CE
:104BFD0012E342EF60037F0122122BCD90002012B1
:104C0D002D047C017D80120445AA04AB05122ED71C
:104C1D00ED4C6005122ED78015122BCD9000201271
:104C2D002D047C017D801204457F0C122F219002F2
:104C3D0030122CBFFB9002691207CD000002061244
:104C4D002B0B122D5612304B400A900230E0FEA372
:104C5D00E0FF80047E007F08122E6512B16DEF60BB
:104C6D00037F0122122BCD900020122D047C007D9C
:104C7D00C0120445AA04AB057D06122ED9ED4C6079
:104C8D00077D06122ED98015122BCD900020122DE6
:104C9D00047C007DC01204457F06122F2190023046
:104CAD00122CBFFB9002691207CD00000206122BD9
:104CBD007A12304B400A900230E0FEA3E0FF8004F0
:104CCD007E007F08122E6512B16DEF60037F012209
:104CDD00900227122A8020E40C122BCDE9243212E7
:104CED002A99122D5E90022A122A8020E40C122B92
:104CFD00CDE9242A122A99122D5E90022A122D181E
:104D0D00FF64066008EF640760037F002290027C59
:104D1D001207CD00000036122BCD900028124D78D1
:104D2D0060037F012290027C1207CD0000010A1260
:104D3D002BCD90000C124D7860037F012290027CE8
:104D4D001207CD0000010E122BCD9000141205118B
:104D5D0025E0FEE5F033900280F0A3CEF07FC21285
:0A4D6D00E412EF60037F01227F00D3
:104D77002212051125E0FEE5F033900280F0A3CE64
:0F4D8700F07FC212E412EF227FC212E342EF224A
:03ECF5007F00227B
:0EA43D0090022E12082A900231ECF0A3EDF0EE
:10A44B0078377C027D017BFF7AE979007E007F0AF9
:10A45B00120393900231E0FEA3E0FFEE7044EF1481
:10A46B00601A14602A24027039122CD59000B31292
:10A47B002FF56048122CE19000B38037122CD59049
:10A48B0000B6122FF56035122CE19000B680241225
:10A49B002CD59000B9122FF56022122CE19000B947
:10A4AB008011122CD59000BC122FF5600F122CE1ED
:10A4BB009000BC12085390024112082AE490023318
:10A4CB00F0A3F0900233E0FEA3E0FFC39440EE94C0
:10A4DB0000400302A55FEF7802C333CE33CED8F929
:10A4EB00FF90024112080AE92FF9EA3EFA78377C0D
:10A4FB00027D017E007F04120393900232E0FEA3E3
:10A50B00E0FCA3E04480FDEE4CFFED90023FCFF06A
:10A51B00A3EFF09002831207CD0000013B7B017A81
:10A52B00027937122C7A1207CD0000000A7FC21273
:10A53B00E342EF60037F012212ECF57E00900235BF
:10A54B00EEF0A3EFF0700D900233E475F0011204FE
:10A55B00D002A4CE900235E0FEA3E0FF64024E7061
:09A56B00089002B8F0A37406F098
:01A5740022C4
:06A0520090022412082A0E
:10A05800122E51900227122C6190002A122D047C96
:10A06800007D03120433AC06AD07122C8A25E0FFED
:10A07800E5F033FEC3EF9DEE9C7E0040047F0F8029
:10A08800027F0A90022A122CBFFB9002691207CDA8
:10A0980000000100122B0B122D567408F0EB44A09F
:10A0A800FFA3EA122ABF12B16DEF60037F0122906D
:10A0B80002691207CD00000100122B0B7407122A47
:10A0C800B2122CCD12B16DEF60037F0122900269AC
:10A0D8001207CD00000100122B0B7402122AB212D3
:10A0E8002CCD12B16DEF60037F0122900227122C54
:10A0F800FE122B25D39FE5F09E400F90022BE054D3
:10A108000364037005FE7F0180047E007F009002D7
:10A118002A122CBFFB9002691207CD0000010090A3
:10A12800026D122AAEA3122BBB12B16DEF60037F32
:10A138000122122E519000B3122EBE7023122E51FE
:10A148009000B6122EBE7018122E519000B9122E21
:10A15800BE700D122E519000BC122EBE7002FF224E
:10A16800122E51E4FDFC12A43DEF60037F01221280
:10A178002E517D0112A1A460037F0122122E517D70
:10A188000212A1A460037F0122122E517D037C00DC
:0BA1980012A43DEF60037F01227F0056
:08A1A300227C0012A43DEF2212
:06AB4A0090022412082A0B
:10AB5000900227122C4F90022412080A90022A1207
:10AB60002D0B900224122B88B40509900227122A7B
:10AB700093122FA290022A123095D39400E5F094FC
:10AB8000064009900227122A93122FA29002271240
:10AB90002A8030E42190022A122CFEBE0418BF380D
:10ABA0001590002A122D04BE020CBF400990022706
:10ABB000122A93122FA2900227122D75FF640760AC
:10ABC00004EFB40606122A96122FA2900269120709
:10ABD000CD00000040122B0B7408122AB2900227FD
:10ABE000122A80E5F07E0030E1047F0080027F01C0
:10ABF000122ABB12B16DEF60037F0122900269122D
:10AC000007CD00000205122B0B7408122AB2900225
:10AC100027122A80E5F07E0030E1047F0180027F68
:10AC200000122ABB12B16DEF60037F01229002690E
:10AC30001207CD00000208122B0B740E122AB290DC
:10AC40000227122A80E5F07E0030E1047F018002B5
:10AC50007F00122ABB12B16DEF60037F01227F00DB
:01AC600022D1
:10B88600E924D2F9E43AFA122CB0FFAEF01204E63B
:10B89600FDACF0D39FEC9E50028069122CB0FFAE37
:10B8A600F0C3EE94044012EF94A0EE9405500A9073
:10B8B6000224E4F0A304F08052C3EF94D0EE940285
:10B8C6004010EE9404500B900224E4F0A37402F0AE
:10B8D6008039C3EF9480EE94024010EF94D0EE943A
:10B8E600025008900224122CA38020C3EF94E0EEAD
:10B8F60094014010EF9480EE9402500890022412B6
:10B906002E8D8007E4900224F0A3F0ED648070038E
:10B91600EC64076007E4900224F0A3F0900224E0B0
:10B92600FEA3E0FF7C007D1812043374812FF974A6
:10B93600113EFA7BFF12D471EF60037F0122900261
:10B9460024E07002A3E06003D38001C3920C12DBF3
:01B9560033BD
:01B9570022CD
:069C1A0090022412082A4A
:109C2000900227122D4C12309E90022A122D7B1288
:109C3000309E90022D122D0B12309E900230122D6C
:109C4000DF900227122A8090022A30E407122B9418
:109C500054FE8005122B944401122D6A122D72FFBE
:109C600064016004EFB40707122B914402800512CF
:109C70002B9154FD122D6A122D2190022A400712B9
:109C80002B9444088005122B9454F7122D6A122D40
:109C90002190022A4007122B9444108005122B9425
:109CA00054EF122D6A122FFC122D04122D34900243
:109CB0002A4007122B9444208005122B9454DF1263
:109CC0002D6A122D72FF64066004EFB4070A122D8C
:109CD000CD122A9944018008122DCD122A9954FEE2
:109CE0008FF0120596122D72FF64086004EFB4091C
:109CF0000A122DCD122A9944028008122DCD122A63
:109D00009954FD8FF012059690022A122B2230E012
:109D100012122FFC122D04122D345007122B9144D5
:109D2000408005122B9154BF122D6A90022A122BEB
:109D300022E5F030E012900230122D75700A122DDB
:109D4000CD122A9944088008122DCD122A9954F771
:109D50008FF0120596900230122D75FF640760187F
:109D6000EF64086013EF6409600EEF64106009EFA0
:109D700064116004EFB4120A1230A4122B9A440842
:0F9D800080081230A4122B9A54F7122D6A7F001C
:019D8F0022B1
:06578A0090022412082A1F
:10579000900227122D7B122E75E924D290022A1234
:1057A0002F1A122E7590022D122DDF90026912070A
:1057B000CD00000040122B0B7406122AB2122B1FD0
:1057C0007E0030E6047F0180027F00122ABB12B106
:1057D0006DEF60037F01229002691207CD00000186
:1057E00001122FBCF07403122B1D7E0030E6047FE3
:1057F0000180027F00EF4402FFEE122E6A12B16DAB
:10580000EF60037F01229002691207CD00000205BC
:10581000122B0B7407122AB2122B1F7E0030E004E9
:105820007F0180027F00122ABB12B16DEF60037FFF
:1058300001229002691207CD00000205122B0B74A1
:1058400006122AB2122B1F7E0030E0047F01800274
:105850007F00122ABB12B16DEF60037F012290021C
:10586000691207CD00000205122B0B7404122AB234
:10587000122B1F7E0030E0047F0180027F00122A7D
:10588000BB12B16DEF60037F01229002691207CD58
:105890000000020590026D122AAE122B1F7E00300E
:1058A000E2047F0180027F00122ABB12B16DEF601B
:1058B000037F01229002691207CD00000208122B1B
:1058C0000B740D122AB2122B1F7E0030E3047F01ED
:1058D00080027F00122ABB12B16DEF60037F0122AC
:1058E0009002691207CD00000208122B0B740B12F4
:1058F0002AB2122B1F7E0030E0047F0180027F005D
:10590000122ABB12B16DEF60037F0122900269126F
:1059100007CD00000208122B0B740A122AB2122BB8
:105920001F7E0030E0047F0180027F00122ABB123C
:10593000B16DEF60037F01229002691207CD000074
:105940000211122B0B122D56122D567412125BCA15
:1059500060037F012290027C1207CD00000251906B
:10596000022A122CFE7C007D03120433EF7802CE53
:10597000C313CE13D8F9FF900280EE122ABF12E4AF
:1059800012EF60037F01229002691207CD0000022E
:105990006D122B0B7407122AB2122B1F7E0030E0FF
:1059A000047F0180027F00122ABB12B16DEF6003F9
:1059B0007F0122122B1FE5F030E05490022D122AB5
:1059C0008030E44B90022A122FFF120511D3941C51
:1059D000E5F0940250399002691207CD00000249A7
:1059E000122B0B740CF0A3E4F0A3122EE9125BCA85
:1059F00060037F01229002691207CD00000252125B
:105A00002B7A7402122AB2125BD2603B7F01229081
:105A100002691207CD00000249122B0B740C122EE2
:105A2000EB122AB2125BD260037F0122900269124C
:105A300007CD00000252122B7A122C9F7FC212B1A6
:105A40006DEF60037F01229002691207CD00000113
:105A500000122B0B7403122AB2122B1FE5F07E00EA
:105A600030E3047F0180027F00122ABB12B16DEF88
:105A700060037F01229002691207CD000002081224
:105A80002B0B740F122AB2122B1FE5F07E0030E3AD
:105A9000047F0180027F00122ABB12B16DEF600308
:105AA0007F01229002691207CD00000083122B0BA8
:105AB0007405122AB2122B1FE5F07E0030E3047F3A
:105AC0000180027F00122ABB12B16DEF60037F01DB
:105AD000229002691207CD00000258122B12E5F045
:105AE0007E0030E0047F1880027F14122ABB12B1BE
:105AF0006DEF60037F01229002691207CD00000262
:105B00005A122B12E5F07E0030E0047F1E80027FE7
:105B100028122ABB12B16DEF60037F012290022789
:105B2000122D75122E7412E05CEF60037F0122903B
:105B30000227122D18122E7412D59BEF60037F01DD
:105B400022900227122F91122E7412B264EF60037A
:105B50007F0122122CAA30E003D38001C3920C12E1
:105B60002E7512699EEF60037F0122122CAA30E18C
:105B700003D38001C3920C122E7512C713EF60037A
:105B80007F0122122CAA30E203D38001C3920C12AF
:105B90002E7512CDE0EF60037F012290026912079B
:105BA000CD00000040122B0B7404122AB2122CAA52
:105BB0007E0030E4047F0180027F00122ABB12B114
:095BC0006DEF60037F01227F00FC
:105BC90022F07FC212B16DEF227FC212B16DEF22B6
:0B81780090023CEDF090023912082A42
:10818300900240122D4C90023912080A90024312B9
:108193002BD39002B3E030E0067E007F8080047E24
:1081A300017F00900248122EF3FF6402600B9002DD
:1081B30040122A80E5F030E1067C007D0880047CD3
:1081C300007D0A900246ECF0A3EDF0EF6402600B31
:1081D300900240122A80E5F030E1067E007F408065
:1081E300047E007F3C90024A122EF3FFBF010690EB
:1081F3000246122EC6122EF8FFBF02149002391245
:10820300080AE92412F9EA3401FA90024312082A0F
:10821300900243123095FDACF0900246E0FEA3E0DD
:10822300FF120433E4FCFD90024C1207C112300626
:10823300A3122D941230136010E47F01FEFDFCC0E5
:1082430004C005C006C007800FE4FDFCFBFAF9F883
:10825300C000C001C002C003123006F9F8A3122DFA
:1082630096D003D002D001D0001205E290024C1246
:1082730007C1900243122CFEE4FCFD90024C122A2B
:108283006A123023122D851230136010E47F01FE31
:10829300FDFCC004C005C006C007800FE4FDFCFB65
:1082A300FAF9F8C000C001C002C003122D85D00343
:1082B300D002D001D000123020E47B02FA122D91BB
:1082C300A804A905AA06AB071230AEEF5401FFE4D8
:1082D300FEFDFC123020900239122B88FFB40409F2
:1082E30090023DE025E025E0F0EFB4050990023D62
:1082F300E075F003A4F01230AE90023DE0FD7C0087
:108303001204339002BCEEF0A3EFF09002BCE0FE47
:10831300A3E0FF90023EE0FAA3E0FB2FFFEA3E90CA
:1083230002C0F0A3EFF090023CE024C1FFE434016B
:10833300FEE4122BB112E412EF60037F0122122E2E
:10834300F824C9122E7B1230AE900280EE122ABF9F
:1083530012E412EF60037F0122900246E0FEA3E0E5
:10836300FF64084E7004FDFF801CEF640A4E700426
:108373007F018012900246E07004A3E0640470045D
:108383007F0280027F03EF7B0025E025E0FA900265
:108393004C1207A9EA4EFEEFFBAA06122EF824CDD3
:1083A300122E7BAF03900280EA122ABF12E412EF6F
:0783B30060037F01227F003F
:0183BA0022A0
:0636C70090022412082A03
:1036CD0012303890022712082A122C35E924A3F95A
:1036DD00E43AFA90022A12082A122C35E924ABF9A1
:1036ED00E43AFA90022D12082AE4900236F0A3F083
:1036FD00A3F0122C191203B9FEC3940540037F03E6
:10370D002290022D122B22E5F030E31E122C19907F
:10371D000238EEF074011203FF90022712080AE935
:10372D00240A122B9A4410122D6A122C191203B965
:10373D0014607114700302380F14700302387B2467
:10374D000360030238E5122A7DFF7C0030E4047D1E
:10375D003180027D62122D4030E4047F3180027F82
:10376D0062122DA4122A7D30E4047F0380027F06AD
:10377D00122A7030E4047F0180027F02122C19900E
:10378D000003122A7930E4047F0380027F06122C95
:10379D0019900004122A7930E4057F010238047F64
:1037AD0002023804122A7DFF7C0030E4047D208063
:1037BD00027D62122D4030E4047F2080027F621270
:1037CD002DA4122A7D30E4047F0280027F06122A86
:1037DD00707F00122C19900003122A7930E4047FB7
:1037ED000280027F06122C19900004122A7930E40F
:1037FD00047F0080027F02122C19122DE97402023F
:10380D0038E0122A7DFF7C0030E4047D3180027D9A
:10381D0062122D4030E4047F3180027F62122DA4AC
:10382D00122A7D30E4047F0380027F06122A703055
:10383D00E4047F0180027F02122C19900003122AEA
:10384D007930E4047F0380027F06122C1990000466
:10385D00122A7930E4047F0180027F02122C199024
:10386D000005EF120411E4122DF2E40238E0122AE1
:10387D007DFF7C0030E4047D2080027D62122D40AE
:10388D0030E4047F2080027F62122DA4122A7D3045
:10389D00E4047F0280027F06122A707F00122C1929
:1038AD00900003122A7930E4047F0280027F061211
:1038BD002C19900004122A7930E4047F0080027FD5
:1038CD0002122C19900005EF120411900006E4125B
:1038DD002DF5E4120411801E122A7DFF7C0030E4C8
:1038ED00047D3180027D62122D4030E4047F3180F1
:1038FD00027F62122DA4900224122B8824FB606497
:10390D000460030239CF122A7DFF7C0030E4047D70
:10391D003180027D63122D4030E4047F3180027FBF
:10392D0063122DA4122A7D30E4047F0380027F06EA
:10393D00122A7030E4047F0180027F02122C19904C
:10394D000003122A7930E4047F0380027F06122CD3
:10395D0019900004122A7930E4057F010239C47FE1
:10396D00020239C4122A7DFF7C0030E4047D3180CF
:10397D00027D62122D4030E4047F3180027F62129D
:10398D002DA4122A7D30E4047F0380027F06122AC3
:10399D00707F00122C19900003122A7930E4047FF5
:1039AD000380027F06122C19900004122A7930E44C
:1039BD00047F0080027F02122C19122DE97402126D
:1039CD000411122A7DFFAEF020E41CEE20E0181247
:1039DD002C199000047408120411900233E0540F56
:1039ED004480FFE4122DA59002691207CD0000005E
:1039FD001E122B7A122C9F7FC212B16DEF60037FC6
:103A0D00012290027C1207CD0000001F900231E0D0
:103A1D00FEA3E04E122DBACF122ABF12E412EF60B0
:103A2D00037F0122900230A3E0C4540FC454F0FF71
:103A3D00A3A3E0C4540F4FFF7E00A3122CBFFB9035
:103A4D0002691207CD00000209122B7A7408F0A347
:103A5D00122BBB12B16DEF60037F01229002691230
:103A6D0007CD00000144122B0B740BF0A3E4F0A35F
:103A7D007405122CCC12B16DEF60037F0122900200
:103A8D00691207CD000001C0122B0B122E89122EC8
:103A9D008C7FC212B16DEF60037F012290022A125A
:103AAD002B88FF122F942F122C22E4FD128178EF18
:103ABD0060037F01229002BCE0FEA3E0FF9002367E
:103ACD00EE8FF01204D090022D122CAD30E4047F55
:103ADD000180027F00EF04FF122C199000041203E5
:103AED00D2FEEF8EF0A4122C227D04128178EF60AD
:103AFD00037F0122122C08900005122C1F7D01124C
:103B0D008178EF60037F0122122C08900006122CA1
:103B1D001F7D02128178EF60037F0122122C089025
:103B2D000007122C1F7D06128178EF60037F0122A2
:103B3D00900234E4F0A37408F090027C1207CD00DB
:103B4D000001D1900280E4F07408123C9160037F73
:103B5D0001229002347411F0A3E4F090027C12075C
:103B6D00CD000001D29002807411F0A3E4F07FC269
:103B7D0012E412EF60037F0122900234E4F0A3748B
:103B8D0080F090027C1207CD000001D3900280E4FA
:103B9D00F07480123C9160037F01229002347422F4
:103BAD00F0A374AAF090027C1207CD000001D4900E
:103BBD0002807422F074AA123C9A60037F01229055
:103BCD000224122B88B404067E827F2080047E415D
:103BDD007F20900234122CBFFB90027C1207CD0087
:103BED000001DD122BB812E412EF60037F01229069
:103BFD000224122B88B404067E807F2080047E3040
:103C0D007F20900234122CBFFB90027C1207CD0056
:103C1D000001DE122BB812E412EF60037F01229037
:103C2D00027C1207CD000001F89002C0122DB9CF11
:103C3D00122ABF12E412EF60037F012290027C1260
:103C4D0007CD000001F99002C1E0240FFE9002C0E3
:103C5D00E03400900280F0CE123C9A60037F012286
:103C6D009002C0E475F0101204D090022D122B2298
:103C7D00E5F030E30C900238E0FF122C19EF12033F
:033C8D00FF7F00B6
:103C900022A3F07FC212E412EF22A3F07FC212E44B
:033CA00012EF22FE
:06A5750090022412082AE6
:10A57B009002691207CD00000040122B0B740512DC
:10A58B002AB27E00300C03FF80027F00122ABB121E
:10A59B00B16DEF60037F01229002691207CD0000BD
:10A5AB00004090026D122AAE300C07A214E433FF68
:10A5BB0080027F0112A69960037F0122122D1530B4
:10A5CB00E003D38001C3920D9002691207CD000006
:10A5DB000142122B7A04F0300C07A20DE433FF80FA
:10A5EB00027F0012A69960037F0122122D1530E124
:10A5FB0003D38001C3920D9002691207CD000001B5
:10A60B004290026D122AAE300C07A20DE433FF808C
:10A61B00027F01EF3395E0122E6A12B16DEF6003EA
:10A62B007F0122900224122B88B40303D38001C331
:10A63B00920D9002691207CD00000144122B0B748E
:10A64B0006122AB2300C07A20DE433FF80027F0002
:10A65B00EF3395E0122E6A12B16DEF60037F01228A
:10A66B009002691207CD00000205122B0B74031226
:10A67B002AB27E00300C03FF80027F00122ABB122D
:0DA68B00B16DEF60037F01227F2812EC63A8
:10A6980022EF3395E0900271F0A3EFF07FC212B180
:03A6A8006DEF2231
:10A6AB0090022112082A122CC61203B97002FF2243
:10A6BB00E41203FF122CC6C20C12A575EF60037FC8
:10A6CB000122122CC612880BEF60037F0122122C81
:10A6DB00C67D017C00124D96EF60037F0122122C88
:10A6EB00C6E4FDFC124D96EF60037F0122122CC6CF
:10A6FB0012B958EF60037F0122122CC612669FEF2E
:10A70B0060037F0122122CC612BC89EF60037F010C
:10A71B0022122CC61230BAEF60037F0122122CC614
:10A72B0012ECBFEF60037F0122122CC61283BBEF2A
:10A73B0060037F0122122C6BE92462123031122C40
:10A74B006BE92493123031122CC6124827EF6003A9
:10A75B007F0122122CC612A052EF60037F0122123E
:10A76B002CC612AB4AEF60037F0122122CC612B823
:10A77B0086EF60037F0122122CC6129C1AEF600336
:10A78B007F0122122CC612CFC4EF60037F0122126D
:10A79B002CC61236C7EF60037F0122122CC612574C
:10A7AB008AEF60037F0122122CC612D7DEEF600303
:10A7BB007F01227F647E0012BD4AEF60037F01227E
:10A7CB00122CC6D20C12A575EF60037F01227F00FD
:01A7DB00225B
:10DA910090031012082A122F49124827EF60037FC2
:10DAA1000122122F4912A052EF60037F0122122F8F
:10DAB1004912AB4AEF60037F0122122F4912B88647
:10DAC100EF60037F0122122F49129C1AEF60037F3E
:10DAD1000122122F4912578AEF60037F01227F0032
:01DAE1002222
:10E5BE0090031312082A1230B412DA91EF60037F1F
:10E5CE0001221230B412E618EF60037F01221230DE
:0DE5DE00B41236C7EF60037F01227F0022D8
:10E7210090022812082A90022B12080AC003C00284
:10E73100C00190022812080A9000B31208839002C7
:0BE741002812080AE4FDFC12A43D228F
:10E6710090022812082A90022B12080AC003C00235
:10E68100C00190022812080A9000B6120883900275
:0CE691002812080A7D017C0012A43D2222
:10E69D0090022812082A90022B12080AC003C00209
:10E6AD00C00190022812080A9000B9120883900246
:0CE6BD002812080A7D027C0012A43D22F5
:10E6C90090022812082A90022B12080AC003C002DD
:10E6D900C00190022812080A9000BC120883900217
:0CE6E9002812080A7D037C0012A43D22C8
:10D4710090022812082A900228122F4F700C7BFF6D
:10D481007A11798190022812082A9002831207CD1D
:10D4910000000022900228122C771207CD00000014
:10D4A100107FC212E342EF60037F012290028312D8
:10D4B10007CD0000002C900228122B3590028A1211
:10D4C10007CD000000087FC212E342EF60037F0135
:04D4D100227F002294
:10DB33009002691207CD0000002A122B0B74031206
:10DB43002AB27E00300C03FF80027F00122ABB1230
:10DB5300B16DEF60037F01229002691207CD0000CF
:10DB6300002A122B7A04F07E00300C03FF80027F20
:10DB730000122ABB12B16DEF60037F01227F0022E6
:10DEE20090022812082A900228122F4F700C7BFFF2
:10DEF2007A1179F990022812082A9002831207CD2A
:10DF020000000120900228122C771207CD00000099
:0FDF1200107FC212E342EF60037F01227F0022E3
:10E7F500AB079002691207CD00000129122B0B12FD
:10E805002D567408F0AF03A3E4122ABF12B16DEFC1
:08E8150060037F01227F002255
:10E81D009002691207CD00000128122B7A04F07EB8
:10E82D0000300C03FF80027F00122ABB12B16DEF86
:08E83D0060037F01227F00222D
:10E7770090027C1207CD00000063300C067E027FFA
:10E78700F980047E007F00900280EE122ABF12E417
:0AE7970012EF60037F01227F0022D1
:10DAE20090027C1207CD00000065300C067E027F9A
:10DAF200F980047E007F00900280EE122ABF12E4B9
:10DB020012EF60037F012290027C1207CD00000019
:10DB120067300C067E027FF980047E007F0090024F
:10DB220080EE122ABF12E412EF60037F01227F000F
:01DB320022D0
:10DF210090022812082A900228122F4F700C7BFFB2
:10DF31007A12790990022812082A9002831207CDD9
:10DF410000000068900228122C771207CD00000013
:0FDF5100087FC212E342EF60037F01227F0022AC
:10E845009002691207CD0000006C122B7A04F07E4D
:10E8550000300C03FF80027F00122ABB12B16DEF5E
:08E8650060037F01227F002205
:10DF600090022812082A900228122F4F700C7BFF73
:10DF70007A12791190022812082A9002831207CD92
:10DF80000000012A900228122C771207CD00000011
:0FDF9000087FC212E342EF60037F01227F00226D
:10DF9F0090022812082A900228122F4F700C7BFF34
:10DFAF007A12791990022812082A9002831207CD4B
:10DFBF0000000050900228122C771207CD000000AD
:0FDFCF00127FC212E342EF60037F01227F002224
:10DFDE0090022812082A900228122F4F700C7BFFF5
:10DFEE007A12792B90022812082A9002831207CDFA
:10DFFE00000003F0900228122C771207CD000000CB
:0FE00E000A7FC212E342EF60037F01227F0022EC
:10E86D009002691207CD000003C0122B7A04F07ECE
:10E87D0000300C03FF80027F00122ABB12B16DEF36
:08E88D0060037F01227F0022DD
:103CA3007B017A0279C812EB14EF60037F012212C1
:103CB3002F56C39490EE94004009D3EF9494EE945E
:103CC3000040037F0522122F5664904E6006EF6476
:103CD300914E70067E007F0180047E007F0090027B
:103CE300B2EEF0A3EFF04E7C0060047D0C80027D09
:103CF3000FE4FBFA7F01FE12C681EF60037F01220E
:103D03007F0112EC63EF60037F01227B017A02796A
:103D1300BA12E3DFEF60037F012290027C1207CD2A
:103D2300000000949002807407F0742F12424E60DA
:103D3300037F01229002691207CD00000090122F29
:103D4300BC122AAF12423260037F01229002691231
:103D530007CD00000090122B0B04122AAC12423242
:103D630060037F01229002691207CD0000009012C8
:103D73002B0B7402122AAC12424060037F01227F94
:103D83000112EC63EF60037F012290027C1207CDE6
:103D9300000001A39002807418F074671242576008
:103DA300037F012290027C1207CD000001A774401B
:103DB30012422360037F012290027C1207CD000090
:103DC3000093900280742FF0748012424E60037F40
:103DD300012290027C1207CD000001A77420124239
:103DE3002360037F01229002691207CD00000005C2
:103DF300122B0B7408122AB2123056122DB1122B49
:103E03005612B16DEF60037F01229002691207CD54
:103E1300000001A7122B0B740C122AB2122DAD1243
:103E23002ABF12B16DEF60037F012290026912076E
:103E3300CD000001C0122B0B740B122AB2122DAD50
:103E4300122ABF12B16DEF60037F01229002691243
:103E530007CD000001FB122B0B7407122AB212309C
:103E630056122DB1122ABF12B16DEF60037F0122EA
:103E73009002691207CD0000030090026D122AAE72
:103E8300122DAD122ABF12B16DEF60037F01229094
:103E930002691207CD000002A0122B0B7406122A2E
:103EA300B2122DAD122ABF12B16DEF60037F012252
:103EB3009002691207CD000001A3122B0B740B12A1
:103EC3002EEBF09002B2E07002A3E07E0060047F6C
:103ED3000080027F03122ABB12B16DEF60037F01E2
:103EE300229002691207CD0000003E122AA412425A
:103EF3004060037F0122122F5664934E700A7C1B8D
:103F03007D847E1B7F848010EF64924E70067E3B1F
:103F13007F8480047E007F049002B4122CBFFB9048
:103F2300027C1207CD000001A0122BB812E412EF9D
:103F330060037F01229002B4741AF0A374E4F0903A
:103F430002BE7472F0A37477F090027C1207CD0066
:103F53000001A1900280741AF074E41242576003C6
:103F63007F012290027C1207CD000001A29002BEC5
:103F7300122DB9CF122ABF12E412EF60037F012280
:103F830090027C1207CD000001D590028074EAF004
:103F9300A374C2F0FF12E412EF60037F01229002C8
:103FA300691207CD000001A7122B7A122E89124243
:103FB3003960037F01229002691207CD00000005DA
:103FC300122B7A122D567410F012426060037F0197
:103FD300229002691207CD00000005122B0B740B0F
:103FE300122C9A12426060037F0122900269120729
:103FF300CD00000006122B0B740E122C9A7FC012F8
:10400300B16DEF60037F012290027C1207CD0000A7
:104013000012900280122CA37FC012E412EF6003FF
:104023007F01229002691207CD00000300122B0BBF
:104033007402122AB2122CCD12B16DEF60037F010C
:10404300229002691207CD00000300122B0B740C9F
:10405300122AAC12423960037F01229002691207CF
:10406300CD000002A0122B0B7407122AB2122CCD22
:1040730012B16DEF60037F012290027C1207CD0025
:104083000003FE122FB47FC212E412EF60037F011C
:10409300229002691207CD00000040122B0B04127C
:1040A3002AAC12424760037F01229002691207CDB6
:1040B30000000142122B0B04122AAC124247600388
:1040C3007F01229002691207CD00000205122B0B1B
:1040D3007403122AB2122CCD12B16DEF60037F016B
:1040E300229002691207CD00000040122B0B7408C6
:1040F300122AAC7FC212B16DEF60037F01229002DE
:10410300691207CD0000001C122B0B740A122AAC93
:104113007FC212B16DEF60037F0122900269120723
:10412300CD0000001C122B0B740A122AB2122CCDE4
:1041330012B16DEF60037F0122122F56EE7038EF3C
:10414300246F600A24FE60042403702B801C9002F9
:10415300CAE4F0A37416F09002CEE4F0A37444F022
:104163009002CCE4F0A304F080191230617407F0DC
:10417300A374A0F0E48006123061F0A3F09002CCA7
:10418300F0A3F09002CBE04409F09002CFE04408A2
:10419300F090027C1207CD0000001E9002CA122D7F
:1041A300B9122B5512E412EF60037F012290027CB7
:1041B3001207CD0000003C9002CE122DB9122B55F0
:1041C30012E412EF60037F01229002691207CD000F
:1041D300000045122B0B740D122AB29002CC122D43
:1041E300C5122B5512B16DEF60037F0122E49002DB
:1041F300B8F0A3F09002B6F0A3F09002C4F0A3F0DD
:104203009002C2F0A3F09002C6F0A3F0C214FBFA2E
:10421300FDFCFFFE12B439EF60037F01227F002211
:10422300900280F0A37408F07FC212E412EF227FA1
:10423300C012B16DEF227FC212B16DEF227FC012A7
:10424300B16DEF227FC212B16DEF22A3F07FC012D6
:10425300E412EF22A3F07FC212E412EF227FC01216
:04426300B16DEF2228
:10E09A0090022812082A9002761207CD000000008A
:10E0AA00122E9A7FC012E445EF60037F012290028C
:10E0BA002812080A1204E6FF900271E5F0F0A3EFB5
:0DE0CA00F07BFF7AE879E312E3AC7F0022DF
:10EB14009002761207CD00000004122E9A7FC012D4
:0BEB2400E445EF60037F01227F002228
:10E3DF0090022812082A9002761207CD000000073B
:10E3EF00122E9A7FC012E445EF60037F0122900244
:10E3FF002812080A1204E65401FFE48FF012059662
:03E40F007F002269
:10E2A30090027C1207CD00000072122FB47FC012BF
:10E2B300E412EF60037F012290027C1207CD00007D
:10E2C3000072122FEE04F07FC012E412EF60037F9E
:05E2D30001227F002282
:10C189009002691207CD000001A0122B0B74061250
:10C199002AAC7FC212B16DEF60037F012290026960
:10C1A9001207CD000001A7122B0B740D122AB2122F
:10C1B9002CCD12B16DEF60037F012290027C120732
:10C1C900CD00000070122FB47FC012E412EF60039B
:10C1D9007F012290027C1207CD00000070122FEE21
:10C1E90004F07FC012E412EF60037F01229002691C
:10C1F9001207CD000001A7122B0B740D122AAC7F78
:10C20900C212B16DEF60037F01229002691207CD5E
:10C21900000001A0122B0B7406122AB2122CCD12A7
:0BC22900B16DEF60037F01227F002257
:10D89400900228EFF0FB90027C1207CD0000003AC2
:10D8A4007E00BB03047F0180027F00900280EE12A1
:10D8B4002B5612E412EF60037F012290027C1207C0
:10D8C400CD0000002A900228E0FFB403067E007F0A
:10D8D400008000122FEEEFF07FC012E412EF60031D
:07D8E4007F012212C189221D
:10D83B00900228EFF0BF102590027C1207CD00005C
:10D84B00003C300C0A9002CEE0FEA3E0FF80047E89
:10D85B00FF7FFF900280EE122B5602E412900269BA
:10D86B001207CD0000003C900228E0FF122B0BEFBB
:10D87B00122AB27E00300C047F0080027F019002DE
:09D88B0071EE122B5612B16D2250
:10D5FE009002691207CD00000040122B0B74051229
:10D60E002AB27E00300C03FF80027F00122ABB126A
:10D61E00B16DEF60037F0122300C057F5012EC6379
:10D62E009002691207CD0000004390026D122AAEDF
:10D63E007E00300C047F0080027F01122ABB12B1E3
:10D64E006DEF60037F0122200C057F2812EC637FB3
:02D65E000022A8
:10E8BC00AB079002691207CD00000000122B0B74FD
:10E8CC0004122CA1AF03A3E4122ABF12B16DEF60A6
:07E8DC00037F01227F0022EF
:10B60100123038122A83E5F07E0030E5047F018094
:10B61100027F0090030AEEF0A3EFF0ED60037F00DC
:10B62100229002691207CD00000042122B7A7406A3
:10B63100122CCC12B16DEF60037F012290026912CE
:10B6410007CD00000042122B0B7407122AB2122CF4
:10B65100CD12B16DEF60037F01229002761207CD0A
:10B66100000000027A037908122E987FC212E44585
:10B67100EF60037F012290030AE0FCA3E0FD4C9000
:10B6810003086005122FCB8004E0C4540F7E0054E0
:10B6910003FF900308EEF0A3EFF0900308E07004BD
:10B6A100A3E064027005FE7F0180047E007F0090AC
:10B6B1000308EEF0A3EFF0C374499DFFE49C122B45
:10B6C10001740D122CA1900308122DC5122B5512D5
:0AB6D100B16DEF60037F01227F00DE
:01B6DB00224C
:05B6DC009002FEEDF0FC
:10B6E100123038122A83E5F07E0030E5047F0180B4
:10B6F100027F00900301EEF0A3EFF09002FEE070F4
:10B7010002FF2290000C120511C3E5F094057C00A4
:10B7110050047D0080027D029002FEE075F004A4D9
:10B72100FFEC45F0FEED4FFFA3EEF0A3EFF0122A80
:10B7310083FFAEF020E40A9002FFE0F0A3E04401B1
:10B74100F0EE20E30A9002FFE0F0A3E04420F09045
:10B7510002691207CD00000042122B7A7406F090A4
:10B7610002FF122DC5CF122ABF12B16DEF60037F08
:10B7710001229002691207CD00000042122B0B74C6
:10B7810007122AAC7FC212B16DEF60037F012290D4
