:07EFDF007FF47E0102EE57F2
:0DEE4A008FC4AF058FC675C5037F2C7E01F8
:0BEE5700EF1FAC0670011E4C70F6228D
:02EEF200AB076C
:10EEF4008BC412EE4CEB4401F5C475C50712EFDF69
:02EF0400AFC696
:01EF060022E8
:10EF2C0012EE4AAF038FC675C5057FF47E0102EE63
:01EF3C00577D
:0C004E00AE0790016AE0FFAD0602EEF282
:0EEF8F00AE05AD0790016AE0FFAB0602EF2C65
:10EB980012EE4AAF038FC675C50112EE53900302F9
:10EBA800E0F5C675C50112EFDFA3E0F5C675C5052A
:07EBB8007FF47E0102EE571D
:02E89900AA07CC
:10E89B008AC412EE4CAF038FC675C50112EE53EA54
:10E8AB004401F5C475C50312EFDFAFC6EF7B00FA69
:0AE8BB0075C50512EFDFAFC6AE020F
:01E8C5002230
:1061CA000D0A000D0A4932435B253032785D3E00E4
:1061DA000D0A577269746520253032786820746F09
:1061EA00205B4164727328253032786829496E64CD
:1061FA006578282530327868295D00526561642007
:10620A005B416472733A25303278682C25303278D3
:10621A00685D202530327868000D0A2B2D2D2D2D32
:10622A002D2D2D20545032383235422F54503238C9
:10623A00353020626F6172642D52657625642E2591
:10624A003032782D2D2D2D2D2B000D0A7C20572034
:10625A00496E6465782044617461205B6368616E8D
:10626A006E656C5D202020577269746520726567BF
:10627A00697374657220202020202020202020208D
:10628A002020202020207C000D0A7C205220496EEC
:10629A00646578205B6368616E6E656C5D202020A2
:1062AA00202020202052656164207265676973741A
:1062BA00657220202020202020202020202020203D
:1062CA00202020207C000D0A7C204420496E646531
:1062DA007820496E64657820202020202020202004
:1062EA0020202044756D7020726567697374657229
:1062FA007320202020202020202020202020202041
:10630A0020207C000D0A7C207363616E6F6E2F73F0
:10631A0063616E6F666620202020202020202020C6
:10632A0020656E61626C652F64697361626C6520B9
:10633A006175746F20646574656374696F6E20207B
:10634A007C0049324300693263000D0A4932432016
:10635A00666972737420737472696E67004F4E00B7
:10636A006F6E000D0A493243207365636F6E6420B5
:10637A00737472696E67005343414E4F4E007363E4
:10638A00616E6F6E005343414E4F46460073636120
:10639A006E6F6666000D0A736574766964656F20B0
:1063AA003A20253032782025303278004D454E5536
:1063BA00006D656E7500555000757000444F574E5C
:1063CA0000646F776E004C454654006C6566740035
:1063DA0052494748540072696768740052455345E8
:1063EA0054007265736574005852007872000D0A81
:1063FA0058522E2E2E0044415441006461746100AB
:10640A00757365722064617461200046570066776F
:10641A00006669726D776172652000464F4E5400BE
:10642A00666F6E7400666F6E7420000D0A4F4B0023
:10643A000D0A4661696C20256400203C2D20436FBB
:10644A006D6D616E64204572726F72212100203C6D
:10645A002D204572726F722121000D0A5458203A7C
:10646A0020253032782025303278202530327820A5
:10647A002530327820253032782025303278000DC8
:10648A000A746F6F2066657720706172616D65743A
:10649A00657221000D0A4932432061646472657392
:1064AA0073203A2025303278000D0A4D616E7561ED
:1064BA006C20666F726D6174203D20253032780041
:1064CA000D0A4D616E75616C206368616E6E656C54
:1064DA00203D2025303278000D0A5456493936308D
:1064EA00502031343030583131323520656E616296
:1064FA006C65000D0A39363050206D6F6465206571
:10650A006E61626C65000D0A425431313230206F7F
:06651A0075747075740039
:10CF4000C18AC10BC104C10DC101C18CC105C10899
:10CF5000C109C106C1034102190041021A00410181
:10CF6000700042017A00004102020041016C004160
:10CF7000016D0041016F00C1824102180041021B96
:05CF800000C107C10023
:10C8B50090022512080AA801AC02AD037BFF229065
:10C8C500021CE02404F582E43402F583229001730E
:10C8D500E07BFFFF900279E4F0A3EFF0227F0D12D9
:10C8E500EFD790016BE0FF900173E0FD229001749A
:10C8F500E090027BFFE4F0A3EFF022900261E0FEFE
:10C9050004F0EE75F003A42425F582E43402F583E2
:10C9150002082A90021CE004F0222472F582E43415
:10C9250001F583EFF02290021CE02404F9E43402BF
:10C93500FA22A3E4F0A3EFF02290021CE0FF04F03A
:0EC9450074042F22E490021CF0900204F022F1
:03000300020006F2
:05000600C2A8D2A832DF
:03000B0002D3E835
:10D3E800C0E0C0F0C083C082C0D075D000C000C209
:10D3F800AF90017AE475F0011204D0900202E004C3
:10D40800F090016FE004F0D390017BE0946090010C
:10D418007AE094004014E4F0A3F090016CE004F08A
:10D42800A3E0600414F08002D202900202E0D394D8
:10D438000A4008E4F0A3E0600214F0D2AFD000D0B4
:0AD44800D0D082D083D0F0D0E032C3
:0300130002000EDA
:05000E00C2AFD2AF32C9
:0CEF9D00C2A9C20290016DEFF0D2A922BF
:10EF3D00EF600D90016CE02FFF90016CE0B507F9CB
:01EF4D0022A1
:0300230002E003F5
:10E00300C0E0C083C082C0D075D000C007C2AF30AB
:10E013009821C298900218E0FF04F0747C2FF582D7
:10E02300E43401F583E599F0900218E0C394864047
:10E0330002E4F0309904C299C207D2AFD007D0D01E
:07E04300D082D083D0E0324F
:03004B0002EFC7FA
:08EFC700C2AF759100D2AF3218
:03005B0002EFCFE2
:08EFCF00C2AF759100D2AF3210
:10EF1A0090021BE0FF900218E0B507037F00227FF2
:02EF2A000122C2
:10EDC10090021BE0247CF582E43401F583E0FF909E
:0DEDD100021BE004F0E0C394864002E4F071
:01EDDE002212
:08EFD7002007FD8F99D20722EB
:0D001600758921758CFF758A3875A88222C6
:0FEF8000758780759850758921758DF3D28E2213
:10E26900758780759850758922758855758A647582
:10E279008C64758DF375B80275A882D299D2AC7584
:10E28900C70390FFF7747EF0A37407F090FFFA7448
:0FE29900F8F090FFF2740FF0C298C299C28D2274
:09EFB5007BFF7A6179CA02EDFBD1
:06EC0D0090022512082A06
:10EC130090022512080A1203B96014900225E475C4
:0FEC2300F0011208131203B9FEFF12EFD780E1C0
:01EC320022BF
:10EF70007BFF7A6179CD90016BE012C8D802E6B7C9
:10E7B300900225EFF0FCA3EDF0A3EBF07A6179DA98
:10E7C30012C8D6ECA312C8F9EDFF12C93712E6B787
:0EE7D300900225E0FFA3E0FDA3E0FB02EF2C87
:08E45E00900225EFF0A3EDF0A0
:10E4660012EEF2900227EFF07BFF7A6279059002B6
:10E4760025E0FD900279E4F0A3EDF0900226E0FDA0
:10E4860090027BE4F0A3EDF012C93712E6B79002D2
:03E4960027E0FF7D
:01E499002260
:10E50D00EFC39430400CEFD394395006C3EF9430E1
:10E51D00FF22EFC39461400BEFD394665005EF24B7
:10E52D00A9FF22EFC39441400BEFD394465005EF62
:07E53D0024C9FF227FFF2229
:10E7E100E4FD1203B9602464206020EDC454F0FDFF
:10E7F1001203B9FF12E50DAE07BFFF037FFF22EE43
:0DE801002DFD740129F9E43AFA80D7AF0526
:01E80E0022E7
:09DF2000900223EFF0A312082A7D
:10DF2900E4900227F0A3F090022412080A1203B920
:10DF3900FFF4602A900229EFF09000011203D2FE4B
:10DF490090022AF0FD12EF8F900225E475F002127B
:10DF590004D090022774FFF5F01204D080C97F32F3
:03DF690002EF3D87
:10DED2007F0212EF3D7BFF7A627923E4900279F0B0
:10DEE200A3F0A3F0A37404F012E6B77A6279541295
:10DEF200DF137A62799212EDFB7F0112EF3D7A62B3
:10DF020079D012DF137A63790E12EDFB7F0102EFF3
:0EDF12003D7BFF12EDFB7F0112EF3D7BFF22F6
:106EBF00E4FF900261F0900263F0A3F07B017A028D
:106ECF00796590026C12082A12C92B12C90012C8D8
:106EDF00C4E0FE64206009EE600612C9180F80EE50
:106EEF00EFD394015008E490021CF07F012212C8E6
:106EFF00C4E07004D210800AC21012C93E12C8CA70
:106F0F00E4F020104912C8C4E0FF7004D210803E94
:106F1F00EFB4200812C93E12C8CAE4F090021CE078
:106F2F00FF12C92F7B0112C90074042FF9E4340238
:106F3F00FA12E7E190016EE004F012C91F12C8C403
:106F4F00E0FF642060BCEF60B912C91880EF12C86F
:106F5F00B57A63794C120A80EF600D12C8B57A6367
:106F6F007950120A80EF70357BFF7A63795412E6FD
:106F7F00B790022812C8B87A637967120A80EF6057
:106F8F001390022812C8B87A63796A120A80EF60E8
:106F9F000302719F7BFF7A63796D02719112C8B5FD
:106FAF007A637981120A80EF600D12C8B57A63791E
:106FBF0088120A80EF7005D20C02719F12C8B57A41
:106FCF0063798F120A80EF600D12C8B57A637997D3
:106FDF00120A80EF7028C20C90016EE06402600309
:106FEF0002719F7A63799F12C8D212C8F212E6B764
:106FFF00900173E0FFA3E0FD12652002719F12C89C
:10700F00B57A6379B6120A80EF600D12C8B57A634C
:10701F0079BB120A80EF700612DE8202719F12C8CE
:10702F00B57A6379C0120A80EF600D12C8B57A6322
:10703F0079C3120A80EF700612ED3302719F12C8E6
:10704F00B57A6379C6120A80EF600D12C8B57A63FC
:10705F0079CB120A80EF700612ED5702719F12C89A
:10706F00B57A6379D0120A80EF600D12C8B57A63D2
:10707F0079D5120A80EF700612ECEB02719F12C8DD
:10708F00B57A6379DA120A80EF600D12C8B57A63A8
:10709F0079E0120A80EF700612ED0F02719F12C88D
:1070AF00B57A6379E6120A80EF600D12C8B57A637C
:1070BF0079EC120A80EF700612ED7B02719F12C8F5
:1070CF00B57A6379F2120A80EF601012C8B57A634D
:1070DF0079F5120A80EF60030271967BFF7A63796C
:1070EF00F812E6B790026F74FFF090022812C8B83A
:1070FF007A647900120A80EF601090022812C8B8E3
:10710F007A647905120A80EF70087BFF7A64790A36
:10711F00804E90022812C8B87A647915120A80EF4F
:10712F00601090022812C8B87A647918120A80EF9A
:10713F0070087BFF7A64791B802690022812C8B8EA
:10714F007A647925120A80EF601090022812C8B86D
:10715F007A64792A120A80EF70097BFF7A64792F9B
:10716F0012E6B790026FE0C3648094807BFF400605
:10717F007A647935800C7A64793A90026FE09002E4
:10718F0079F012E6B780097BFF7A64794412EDFB40
:07719F0012EF7012C949FF55
:0171A60022C6
:056B9000900223EFF06C
:106B950030000CE0FFB40D04C2008010026E60905E
:106BA5000223E0FFB43B05D200026E60900223E0B1
:106BB500FF640D6008EF642F6003026E21EFB40DD2
:106BC50002C203C200EFB42F197B017A02790412C5
:106BD500EC0D900171E090021CF0900172E09002C2
:106BE50004F090021CE0FF12C8C8E4F0900171EFB8
:106BF500F0E490021CF090016EF0C20EC20F12C8B4
:106C0500C4E0FFB4200512C91880F3EF7002D20E5C
:106C150090016EE012C91F126EBFEF7003026EBEC7
:106C250090016EE004F012C918200F4D200E4A1293
:106C3500C8C4E0FF64206007EF6004D20F803A12F9
:106C4500C8C4E0FFB4200512C91880F3EF7004D260
:106C55000E802612C92B7B0112E7E190016EE0FE42
:106C650004F074722E12C92112C8C4E0FF642060BA
:106C7500B8EF60B512C91880EF300A04C20FC20A16
:106C8500300F167BFF7A64795812EDFB12EF70E432
:106C9500900171F090021CF022900172E01208DC64
:106CA5006E1B3F6DF3436D41446E1B486D01526C85
:106CB500D0576D985A6DF3636D41646E1B686D0115
:106CC500726CD0776D987A00006E1E90016EE0644C
:106CD500037002801F90016EE064046003026E89F8
:106CE50090016BE0FF900175E0FB7D4012E7B37FFB
:106CF5000112EF3D12C8E7A3E0FB802F90016EE083
:106D0500B4021112EFB512C8E712E45E900174EFF8
:106D1500F0026E8990016EE064036003026E899053
:106D2500016BE0FF900174E0FB7D4012E7B37F014A
:106D350012EF3D12C8E712E45E026E8990016EE023
:106D4500FDB40109900173E02408F08007EDB40259
:106D550008900173E02407A3F0900173E0900224EA
:106D6500F0900174E0FF900224E0FED39F400302FF
:106D75006E89EEC394FF4003026E8912EFB5900150
:106D85006BE0FF900224E0FD12E45E900224E00433
:106D9500F080CE90016EE0D39404404A900173E0F8
:106DA500FFA3E0FDA3E0FBA3E0900274F090017760
:106DB500E0900275F0129EDE7A64796412C8D212F0
:106DC500C8F2900175E0FF90027DE4F0A3EFF0902A
:106DD5000176E0FF90027FE4F0A3EFF0900177E009
:106DE500FF90028180257BFF7A647989802290015A
:106DF5006EE0B40208900173E090016BF07BFF7ABE
:106E050064799E90016BE0FF900279E4F0A3EFF0C6
:106E150012E6B7026E8912DED2026E89900223E075
:106E2500FF24E5603924EF603724FE604624F260D4
:106E35002F24FE603E2436705290021CE0D394004D
:106E45004077E0FE14F074042E12C8CAE4F012EF85
:106E5500D77F2012EFD7900223E0FF02EFD78024DF
:106E650012C8E2A3E014FBF012E7B312C8E712E47C
:106E75005E801112C8E2A3E004FBF012E7B312C86A
:106E8500E712E45E12EF7012C94922900223E0FF77
:106E9500645E6004EFB42402D20320030890022349
:106EA500E0FF12EFD7900223E0FF90021CE0FE0402
:096EB500F074042E12C8CAEFF0BB
:016EBE0022B1
:10EE310090017AE0FEA3E0FFC2A090017AE06E703B
:08EE410003A3E06F60F4D2A00E
:01EE490022A6
:10E57B00E5A01313135407FFD394034007E4900251
:10E58B001FF0800690021F7401F0EF5403FF70021E
:10E59B007F0CEFB401027F0DEFB402027F02EFB4E8
:04E5AB0002027F03E6
:01E5AF002249
:10D9700012E57B90021DEFF07BFF7A6479B312C849
:10D98000D912E6B7E5A0C313540390021EF07BFF43
:10D990007A6479CAE012C8D812E6B720B60BD20171
:10D9A0007BFF7A6479E212E6B720B70BD2087BFFDF
:10D9B0007A6479FD12E6B720B40BD2057BFF7A6555
:10D9C000791012E6B712C41B7F0512EF3D02EF700B
:10EC330012E2697F0A12EF3D12EE31E490021CF0FA
:10EC430012EFB57F0A12EF3D12D97012DED27F0A9E
:06EC530012EF3D02EF701C
:10E80F0012EC33127CF790016AE0A3F012EF1AEFCB
:10E81F00600612EDC1126B9030020B7FC812EF9D94
:0EE82F00300C031225A612BEEB12EDDF80DEC8
:10EF4E003031323334353637383941424344454611
:01EF5E0000B2
:10CFBF009002A4E475F0011208131203B99002AAAB
:10CFCF00F0229002A7E475F0021208131204E6FF94
:10CFDF00AEF0229002AC1207A99002B10207B590F1
:10CFEF0002B0E0FF9002ABE0FD3395E0FCC3ED9F94
:10CFFF007480F86C98229002AC0207C19002B112B3
:10D00F0007A9E47B0A22F81205FD9002B10207C1BD
:10D01F00E475F0011208130203B912080A0203B9EA
:0FD02F0075F0041208130207899002AC0207A9DA
:068403009002A412082AF9
:108409009002B11207CD0000000112CFBF70030224
:10841900865024DB70139002A412D029B42517903A
:1084290002A5E475F0011204D02007FD9002AAE02C
:10843900F599D20780D4C211C212E49002B0F0902B
:1084490002A412CFC3E0FDB43008D21112CFBFE0AD
:108459008011EDC3943040149002AAE0FFD39439FF
:10846900500AEF24D09002B0F012CFBFC21390028D
:10847900AAE0FF646C6004EFB44C0512CFBFD213BD
:108489009002AAE024A8700302859B24F5700302D8
:10849900862B14601524F170030285FE24FB7003FA
:1084A90002859B243460030286449002A7E43013BA
:1084B9000512D02F800612CFD5E4FCFD12D005900D
:1084C90002B0E0704212D038EC4D4E4F700B2007CD
:1084D900FD759930D207028413E49002B0F0A3121B
:1084E90007CD0000000112CFE2120688E4FBFAF979
:1084F900F8C312073E601012D00B12D0159002B0CB
:10850900E004F0E0B409DFE49002ABF09002B112AC
:1085190007CD0000000112CFEE501012D00BFAF96E
:1085290012D0159002ABE004F080EB12CFE21206F4
:1085390088AC00AD01AE02AF0312D00512D00BFA20
:10854900F9F812068812D01912CFE2120688EF2420
:1085590030FF9002AAF0BF301A201117E47F01FE04
:10856900FDFC12CFE8C312073E60089002AA7420EE
:10857900F08002D2112007FD9002AAE0F599D207F6
:10858900E47F01FEFDFC12CFE8C312073E709C0296
:1085990084139002A7E430130512D02F800612CF5E
:1085A900D5E4FCFD12D0059002B0E070037404F02C
:1085B900E49002ABF012CFEE40030284132007FDD2
:1085C9009002ABE0FF9002B0E0C39F1425E025E0E4
:1085D900F912D038A8011207627E00EF540F244E19
:1085E900F582EE34EFF583E493F599D2079002AB67
:1085F900E004F080C09002A7E475F003120813129A
:1086090008339002B512082A9002B512D0297003D6
:108619000284132007FD9002B512D01FF599D207E5
:1086290080E612CFD1EE3395E0FDFC12D00520078C
:10863900FD12D0388F99D20702841312CFD1E4FCEE
:07864900FD12D005028413AD
:018650002207
:06E6B70090027612082A11
:10E6BD007B017A0279799002A112082A9002A112A7
:10E6CD00080A9002A712082A90027612080A1284EC
:0DE6DD00037B007A0079009002A102082A58
:10EDFB0090027012082A90027012D029600C9002B7
:0BEE0B007012D01FFF12EFD780EC2226
:10EBE6004D44494E3378785F476574436869704988
:10EBF60044203D203078253034580A0D00000000AE
:07EC06000000000000000007
:10CF85004202BE00004202C000004202BC00004254
:10CF950002CA00004202C800004202CC0000C116CD
:1032B500900233E0FEA3E0900274FFEE3395E0FD4B
:1032C500FC1207B50205FD90022C12080A900002B7
:1032D500EF12041190022912080A90000A02051142
:1032E50090022BE4F07430A3F0A312080AE9240A33
:1032F500F9E43AFA1204E6FFE5F02290026FE4F0F1
:10330500740FA3F0A3E4F0A304F0A3E4F0A304F086
:1033150022FFEE900273F0A3EFF07FC22290026CC1
:103325001207A9EF2480FFEE34FFFEED34FFFDEC1C
:1033350034FFFCE47B02FAF9F81205FDA804A9059F
:10334500AA06AB07900253E0FEA3E0FFEE3395E03B
:10335500FDFC22C39FFFE49EFEE4FCFD90026B1280
:1033650007C190026FE4F0A322E490026FF0A3F08E
:10337500A3F07408A3F090022912080A900006022F
:103385000511E92408F9E43AFA02082A12080AE9BB
:103395002410900289F9E43AFA02082A7408F0A385
:1033A500E4F07402A3F0A210E4FF33A3CFF0A3EF7F
:1033B500F07FC022F9E43AFA90022912082A900215
:1033C5002612080AE9241B90022CF9E43AFA0208AD
:1033D5002AE490026FF0A3F0A3F0A3229002261234
:1033E500080A9000030203D290022C12080AE9246D
:1033F50006F9E43AFA0204E6FBE0FEA3E0FF7405F1
:10340500C39FFFE49EFEE4FCFD90027E1207C1907F
:103415000282EAF0A3EBF07FC22212080A90000CA8
:10342500120511FF90022F02080AE924D2F9E43AA5
:10343500FA02082A78111207627B007AF879FF7878
:10344500FFD3020728E924BFF9E43AFA02082A78EB
:1034550011120762E47BFF7A07F9F8C30207289087
:1034650002C2E0FEA3E0FF900238EE8FF01204D016
:1034750090022C02080A1203D290023FF090023803
:10348500E0FFA3E0900240CFF0A3EFF09002260208
:10349500080AE5F09000048FF00205B5E92441F92A
:1034A500E43AFA02082AE924BFF9E43AFA02082ABA
:1034B500FFE5F08FF00205B5E924D2F9E43AFA0206
:1034C500082A7F089002237E007D0002080A120860
:1034D5000A90028912082A90028C2290022D120865
:1034E5000A900002020511E92441F9E43AFA0208BA
:1034F5002AF0A3E4F0A37402F0A3E4F0A37403F0AC
:103505002290022912080A900004020511FDE5F037
:1035150054034EFEEDFFEEF0FAA3EFF022900223E6
:1035250002080AF0E4A3F0A3F07FC2227BFF7A1918
:1035350079F690024312082A90023002080A25E023
:10354500FFE033FEC3740990027E9FFFE49EFEE414
:10355500FCFD0207C112080A900032120511FFAEE8
:10356500F022E924D2F9E43AFA02082A9002261256
:10357500080A9000010203D290022F12080A900057
:103585002A12051125E0FFE5F033FE900022120511
:1035950011D39FE5F09E22900232ECF0A3EDF0EFFF
:1035A5007E0022E924BFF9E43AFA02082A7408F0F9
:1035B500A3E4F0A322FFE5F08FF00205969002291F
:1035C50012080A0203B9E924ABF9E43AFA02082A17
:1035D50090024AE0FEA3E0FFFBAA06E4900252F93E
:1035E500F81207A9020688EE540FF0A3EFF022EEB9
:1035F500900234F0A3EFF0229002B9E05401FF905D
:103605000273E422E0FFA3E090028222F090022BF5
:10361500E0FFA3E09002732290022C12080AE9242D
:103625000622EE540FF0A3EFF022E92441F9E43A23
:10363500FA02082A900005EF1204117402900006A0
:103645001204119000072212080AE92408F9E43A45
:10365500A801FCAD0322900229E0FEA3E0FF7C0057
:10366500020433900229E04EFEA3E04FFF900229A9
:10367500EEF0FAA3EFF0FB22C39F900270F0E49EF8
:1036850090026FF0900271221205E29002682212F8
:1036950005EF9002682290022602080A900226028F
:1036A500080A90022AE090022925E0FFE033FE2275
:1036B500EF541FFFE4900273F0A3EFF07FC222FDE9
:1036C50090022602080AFFE43401FE90027EE4FC23
:1036D500FD0207C1740CF0A3E4F0A37404F0227A90
:1036E50003790B7B0190027C02082A90022BE04EA5
:1036F500F0A3E04FF0227D017E007F20020393C3FB
:1037050013FEEF13FFEE8FF002059690022BE4F007
:10371500A322900010120853E94A4B22A3E0C313D9
:10372500F0A3E013F022EE540FF0A3EFF0227D0C8E
:103735007C00AF03AE02020445900229E4F0A32207
:103745007402F0A3E4F0A3740222EEF0A3EFF0906C
:10375500023EE05403227E007F0802039390022A72
:10376500E02402FE900229E0340090026FF0A3CE1F
:1037750022F9E43AFA02082A7E00CFCDCFCECCCE8C
:10378500120445EF24FFFFEE34FFFE22900229E0EC
:10379500FEA3E0780322120511FF900282E5F022D4
:1037A50090030402080A12080AE94A4B229002CE45
:1037B500E0FEA3E0FF22EEF0A3EFF0A3ECF0A3ED13
:1037C500F0A3EAF0A3EBF022FF90026FEEF0A3EF77
:1037D500F0A3E4F0A37407F022E4A3F0A3F07FC004
:1037E5002212080A9000020203D2EE540FF0A3EF52
:1037F500F02244028FF0020596900229E04CF0A3D6
:10380500E04DF022E4900282F0A3F022E490026FF2
:10381500F0A3F0A32290022602080AE0C4F854F0AF
:10382500C8A3E0C4540F482290022912080AA8012F
:10383500AC02AD0322FF7E00E4FCFD0207C190024D
:1038450082E4F0A322120853EA494B2290022F1278
:10385500080A90002A2290024CE0FEA3E0FFFBAA92
:1038650006E422AC00AD01AE02AF03EC4D4E4F2293
:103875001205E29002520207C1E490022BF0A3F078
:1038850022F9E43AFA020A9DE924BFF9E43AFA2258
:10389500F090022D02080A7E007F13120393900216
:1038A50029227405F0D3EB9408EA9400229002B81B
:1038B500E0FEA3E0F4FFEF22E49002D0F0A3F09045
:1038C50002D422120511FF900273E5F02212080AB4
:1038D50090001002085390022C02080A1207FEE419
:1038E50093FE7401932290001802051112080A90A4
:1038F500003002051190022602080A90022C1208D7
:103905000AE92404229002520207A990030702083B
:013915000AA7
:10B297009002621237BB900262E0FEA3E0FF9002C9
:10B2A700CAE0B50630A3E0B5072B900264E0FEA321
:10B2B700E0FF9002C8E0B5061CA3E0B507179002AF
:10B2C70066E0FEA3E0FF9002CCE0B50608A3E0B578
:10B2D70007037F002290026B1207CD0000002012A7
:10B2E700381112330B7FC012B493EF60037F012232
:10B2F70090027E1207CD0000002C900262123609E0
:10B307001233B112E71DEF60037F012290027E1214
:10B3170007CD0000002E9002641236091233B112D5
:10B32700E71DEF60037F012290027E1207CD000028
:10B3370000309002661236091233B112E71DEF6032
:10B34700037F012290026B1207CD00000020123309
:10B35700D604F01237DE12B493EF60037F01229018
:10B367000262E0FFA3E09002CACFF0A3EFF09002E1
:10B3770064E0FFA3E09002C8CFF0A3EFF09002666D
:0FB38700E0FFA3E09002CCCFF0A3EFF07F002215
:10C9E80090022A1237BB90026B1207CD000000207C
:10C9F800123367041233087FC012B493EF60037FC9
:10CA0800012290027E1207CD0000003290022A1205
:10CA180036091233B112E71DEF60037F012290023D
:10CA28007E1207CD0000003490022EE0FEA3E078CD
:10CA380007C333CE33CED8F9FF90022CE04EFEA3C5
:10CA4800E04FFF900282EE1233B212E71DEF60034F
:10CA58007F012290026B1207CD0000002090026F28
:10CA680012330A1237DE12B493EF60037F01227F7C
:02CA780000229A
:10C13F0090022612351BFB90026B1207CD000000F8
:10C14F00991233D6740DF0A312341712B493EF6013
:10C15F00037F012290026B1207CD000001431233BF
:10C16F00D6740BF0900226E0FFA3E0CF1233181223
:10C17F00B493EF60037F012290026B1207CD000092
:10C18F000099123367740F12330E12352912B493BC
:10C19F00EF60037F012290026B1207CD0000014375
:10C1AF00123367740B12330E12352912B493EF60EA
:10C1BF00037F012290026B1207CD0000009912330A
:10C1CF00007FC212B493EF60037F012290026B12C3
:10C1DF0007CD0000014390026FE4F0740B12330798
:0EC1EF007FC212B493EF60037F01227F002213
:068AC60090022612082AAE
:108ACC001237E9FF14602B14602E146027146026F3
:108ADC001460232405703212381A9002291233873D
:108AEC0012381AE9240890022C12339AD20ED20FA3
:108AFC008024801580138002800F12381AE9241B01
:108B0C001233B9C20EC20F800D12381AE9240812A2
:108B1C0033B9D20EC20FEFB4031D90026B1207CD06
:108B2C000000003C123367740B1233087FC012B480
:108B3C0093EF60217F012290026B1207CD000000A1
:108B4C003C123367740B12330E1237DE12B493EFF0
:108B5C0060037F012290026B1207CD0000004712C8
:108B6C003367740412330EA20E1233AD12B493EFAA
:108B7C0060037F012290026B1207CD0000004712A8
:108B8C003367740512330EA20F1233AD12B493EF88
:108B9C0060037F01221233E1B40403D38001C3923A
:108BAC001090026B1207CD0000004812336712338D
:108BBC00A112B493EF60037F01221233E1B40403DA
:108BCC00D38001C3921090026B1207CD00000049B4
:108BDC001233671233A112B493EF60037F01221298
:108BEC0033E1B40403D38001C3921090026B1207DB
:108BFC00CD0000004812336774031233A312B493F0
:108C0C00EF60037F01221233E1B40403D38001C36C
:108C1C00921090026B1207CD00000049123367745A
:108C2C00031233A312B493EF60037F012290022945
:108C3C00123574FF6406600EEF64086009EF640778
:108C4C006004EFB40904D2108002C2101233E1B4F4
:108C5C000402D21090026B1207CD000000481233B0
:108C6C0067740DF0A3E4F074031233A912B493EFFC
:108C7C0060037F012290022C123574FF6406600E93
:108C8C00EF64086009EF64076004EFB40904D210C4
:108C9C008002C2101233E1B40402D21090026B12A3
:108CAC0007CD00000049123367740DF0A3E4F0A364
:108CBC0074031233AA12B493EF60037F01227F0076
:018CCC002285
:0E50320090022612082A900229ECF0A3EDF05D
:10504000E4A3F0A3F0ED64014C900226700812086E
:105050000AE92408800612080AE9241BF9E43AFA4E
:1050600090022D12082A1203B9FEC3941540037F43
:105070000322EE75F008A4248EF9742135F0FA7B32
:10508000FFC003C002C00190022D12364CD001D0E7
:1050900002D00312375B90022D1232EF54EE8FF0E4
:1050A00012059690022D1235C51208DC50D1005021
:1050B000D10150D10250D10350D80450D80550D856
:1050C0000650D80750D80850D80950D80A000050C8
:1050D000E21232F24410801090022D1232EF44118D
:1050E000800690022D1232EF8FF012059690022D5D
:1050F0001232EF54D18FF012059690022D123574B2
:105100001208DC512500513001513D025145035137
:105110005404515C05516806517407518008518C44
:10512000090000519B12387E1232F244020251965D
:10513000E490022BF01232EC440A0251961232E54E
:10514000440E02519690022BE4F074101232EC449B
:105150000E0251961232E5440C0251961237107429
:10516000101232ED440C802E12371074201232EDE2
:10517000440E802212371074A01232ED440E8016B5
:1051800012371074201232ED440C800A123710745A
:10519000A01232ED440C8FF01205961234E030E389
:1051A000047F0180027F00EF7E0060047F40800268
:1051B0007F001236F01232DFFF30E0047D01800202
:1051C0007D00ED7C0060047D0480027D0090022B58
:1051D000123801EF30E1047F0180027F00EF7E0092
:1051E00060047F0280027F001236F0A31232DC30AE
:1051F000E4047F0180027F00EF7E0060047F018075
:10520000027F001236F090026B1207CD0000000200
:10521000123791C333CE33CED8F9FF740C12367DDA
:105220001236DD90022B123820540FFF900273E4E7
:1052300012331B12B493EF60037F012290026B12B2
:1052400007CD00000002123791C333CE33CED8F918
:10525000FF740812367D1234FF90022CE05407FFD1
:10526000900273E412331B12B493EF60037F0122A8
:1052700090026B1207CD00000001900229E0FFA30D
:10528000E090026FCFF0A3EF12330E1234E07E00F5
:1052900030E6047F0180027F0012331712B493EFCF
:1052A00060037F012290026B1207CD000000011203
:1052B000376212330E1234E07E0030E5047F018045
:1052C000027F0012331712B493EF60037F01227D37
:1052D0001912365BC3741A9FFFE49EFEE41233601A
:1052E0007404F0A3E4F0A3740C1238959000081233
:1052F00038C812331B12B493EF60037F012290026F
:105300006B1207CD000000007D0312365BEF24080E
:10531000FFE43E90026FF0A3EF1234FD1234E0542C
:1053200007FF900273E412331B12B493EF60037F04
:10533000012290026B1207CD0000000012376212AA
:10534000330E1234E07E0030E4047F0180027F00DF
:1053500012331712B493EF60037F012290022612DA
:1053600033E424FB600304700890022B1234FF80A6
:105370001B90022BA3E0C4540F7E0030E1047F0198
:1053800080027F0090022BEEF0A3EFF090026B12F0
:1053900007CD000000401236A7C3740E12367EE41B
:1053A000F0A37402123611CF12331B12B493EF60C4
:1053B000037F0122900229E0FEA3E0FF7421123353
:1053C00058740D12330E90022D1232DCE5F07E007F
:1053D00030E1047F0080027F0112331712B493EF93
:1053E00060037F012290026B1207CD0000000312C0
:1053F0003791C333CE33CED8F91237CD90022D1268
:10540000337EAEF07806CEC313CE13D8F91233161E
:1054100012B493EF60037F012290022D12337E5469
:105420003F25E025E0FE12350C90022B123512903C
:1054300002291233FD12E71DEF60037F01221236AD
:10544000A77408123358740D1234FD90022D1235D2
:1054500009E5F01313543FFF900273E412331B125B
:10546000B493EF60037F01221236A7C37408900241
:105470006B12354F1233D6740D12389590000C1202
:1054800038C812331B12B493EF60037F01229002DD
:105490002AE090022912354312389690000E1237F6
:1054A0009B12331B12E71DEF60037F01229002263F
:1054B0001233E47E00B405047F0280027F00900274
:1054C0002B12351BFB90026B1207CD0000001B1244
:1054D00033671235B27402F0A312341712B493EF8B
:1054E00060037F01229002261233E4FFB405081204
:1054F00037107405F0800FEFB40408123710740FE2
:10550000F0800312387E90026B1207CD0000001E5F
:105510001233671235B27404123611CF12331B12D4
:10552000B493EF60037F01229002261233E4FFB4AC
:1055300005028004EFB4040712371004F080031250
:10554000387E90026B1207CD0000001E1233677484
:105550000412330E123612CF12331B12B493EF60C3
:06556000037F01227F0021
:015566002222
:06BC810090022612082AC1
:10BC8700E924BF9002291233CF9002261237E62407
:10BC9700FD50028020E92408F9E43AFAC003C00203
:10BCA700C00112382DD001D002D00312389C1232B5
:10BCB700EF4420802490022612080AE9241BF9E4A5
:10BCC7003AFAC003C002C00112382DD001D002D009
:10BCD7000312389C1232EF54DF8FF0120596900250
:10BCE7006B1207CD00000040123367740312330E46
:10BCF7009002291232DCE5F07E0030E5047F0180F6
:10BD0700027F0012331712B493EF60037F01229072
:10BD1700026B1207CD000000401233677402123322
:10BD27000E12352912B493EF60037F012290026B44
:10BD37001207CD000000401233D60412352812B482
:09BD470093EF60037F01227F00ED
:01BD500022D0
:06685C0090022612082A3A
:10686200E4900229F0A3F0E92441F9E43AFAA312F0
:10687200082A1203B9FEC3941440037F0322EE7563
:10688200F008A42436F9742235F0FA7BFFC003C065
:1068920002C00190022B12364CD001D002D003125A
:1068A200375B90022B1232EF54EEFEEF54DF1237B9
:1068B2000990022B1235C51208DC68FC0068FC0145
:1068C20068FC0268FC03690304690305690306693D
:1068D200030769030869030969030A69030B69036A
:1068E2000C69030D69030E69030F69031069031133
:1068F200690312690313000069131232F244108013
:106902001690022B1232EF4411FEEF4420FFEE806C
:106912000690022B1232EF8FF012059690022B1284
:1069220032EF54F18FF012059690022B1235741249
:1069320008DC695000696201696F02697C03698839
:106942000469940569A00669AC07000069BB90025E
:10695200297402F0A37404F01232F244020269B6FE
:1069620012373E74441232ED440A0269B612373EBF
:10697200746D1232ED440E0269B612373E7445123E
:1069820032ED440E802E12373E74691232ED440C01
:10699200802212373E74411232ED440C80161237B7
:1069A2003E746E1232ED440E800A12373E746A1241
:1069B20032ED440C8FF012059690022B1234E37ED6
:1069C2000030E4047F1080027F00EF4428FF900231
:1069D20029E04EFEA3E04F12367190026B1207CDF2
:1069E200000000A21233D6740AF0A312341712B4B4
:1069F20093EF60037F012290022B1234E3AAF0EAA4
:106A0200540C900229F0A3E4F0EA54F0C4540FFFAE
:106A1200900229E0F0A3E04FF0A31234E37E0030AD
:106A2200E7047F8080027F009002291236F312323F
:106A3200DFFF7C0030E2047D2080027D001237FE01
:106A4200EF7E0030E3047F1080027F0012366890F0
:106A5200026B1207CD000000A01233D6740AF0A315
:106A620012341712B493EF60037F012290022B12AB
:106A720034E37E0030E5047F1080027F009002291B
:106A8200EEF0A3EFF01232DFAEF0EE7C0030E00465
:106A92007D0280027D001237FEEE7E0030E3047F2D
:106AA2000580027F0012366890027E1207CD000038
:106AB20000A312341412E71DEF60037F012290023B
:106AC2002B1232DCE5F07E0030E3047F8080027F0F
:106AD2000090022912351BFB90027E1207CD0000A6
:106AE20000A412341412E71DEF60037F012290020A
:106AF200261233E4FFB404059002298007EF9002C6
:106B020029B40508E4F0A37402F08005E4F0A304BC
:106B1200F090026B1207CD000000A5123367123508
:106B2200B27402F0900229123615CF12331B12B43E
:106B320093EF60037F01229002261235747E0030AB
:106B4200E2047F0180027F0090022912351BFB9034
:106B5200026B1207CD000000A512336774071233CF
:106B62000EA312341712B493EF60037F0122900236
:106B72006B1207CD000000A51233677405123308AB
:0D6B82007FC212B493EF60037F01227F00F9
:016B8F0022E3
:06C07E0090022612082AC0
:10C0840090022912344A90022612080A90022C12B5
:10C0940034A19002291232DCFFAEF0EE30E31090AE
:10C0A400022C1232DCE5F07BFF7A1579968022EEC1
:10C0B40030E01090022C1232DCE5F07BFF7A147928
:10C0C400D6800E90022C1232DCE5F07BFF7A1479D4
:10C0D4009690024F12082A782F7C027D0190024F1D
:10C0E40012080A1236FD9002291232DCE5F07E01B4
:10C0F40030E3047FFC80027FF890024DEEF0A3EF62
:10C10400F0123717600D9002291238D2782F7C0272
:10C114001236FB9002851207CD0000000A7B017ADB
:10C1240002792F1234D61207CD000000207FC212EC
:0AC13400E64FEF60037F01227F0059
:01C13E0022DE
:0639160090022612082AAF
:10391C0090022912344A90022612080A90022C12A4
:10392C0034A19002291232DCE5F030E02790022C11
:10393C001232DCFFAEF0EE30E3117BFF30E0067AA2
:10394C00157996802B7A1579D68025EE7BFF7A1522
:10395C007956802590022C1232DCFFAEF0EE30E36B
:10396C00117BFF30E0067A1579B680047A157996CA
:10397C008007EE7BFF7A15791690026112082A787F
:10398C00417C027D0190026112080A1236FD123848
:10399C00DB90001312371A60101238DB90001312F0
:1039AC00085378417C021236FB1238DB9000061269
:1039BC0003D2FF7E009002681236D39000051203EA
:1039CC00D290026412383A9000041203D290026C26
:1039DC0012383A9000071203D2FB75F0029015F6DC
:1039EC001238E11233509002701207C175F002EBDD
:1039FC009017F61238E11233509002741207C1E49A
:103A0C00FDFCED25E0FFEC33FE74412FF5827402D2
:103A1C003EF583E0FEA3E0FBAA06ED25E0FFEC33C8
:103A2C00FE742F2FF58274023EF583EAF0A3EBF0BF
:103A3C000DBD00010CED64094C70C790022FE0FE27
:103A4C00A3E09002641232BF780712345650067FFE
:103A5C00FF7E07802A90022F12334C9002641232A0
:103A6C00C6780712343B40067F007EF88011900226
:103A7C002F12334C9002641232C6780712076290F0
:103A8C0002411235EC1232B5C004C005C006C007A5
:103A9C0090023112334C9002701232C6D003D00215
:103AAC00D001D00012368D1232C612345450077F1A
:103ABC00FF7E07023B1C1232B5C004C005C006C015
:103ACC000790023112334C9002701232C6D003D0E0
:103ADC0002D001D00012368D1232C6123439400693
:103AEC007F007EF8802A1232B5C004C005C006C023
:103AFC000790023112334C9002701232C6D003D0B0
:103B0C0002D001D00012368D1232C6781112076223
:103B1C009002431235EC9002311232B8C004C00549
:103B2C00C006C00790023312334C9002701232C69A
:103B3C00D003D002D001D0001236941232C6123407
:103B4C005450077FFF7E07023BB69002311232B809
:103B5C00C004C005C006C00790023312334C90025B
:103B6C00701232C6D003D002D001D000123694129B
:103B7C0032C612343940067F007EF8802D90023117
:103B8C001232B8C004C005C006C00790023312330D
:103B9C004C9002701232C6D003D002D001D0001269
:103BAC0036941232C67811120762900245123627EB
:103BBC0090023512334C9002641232C678071234DC
:103BCC005650067FFF7E07802A90023512334C90A8
:103BDC0002641232C6780712343B40067F007EF82E
:103BEC00801190023512334C9002641232C6780761
:103BFC001207629002471236279002391232B8C06F
:103C0C0004C005C006C00790023712334C900270F6
:103C1C001232C6D003D002D001D00012368D12322F
:103C2C00C612345450077FFF7E07023C999002392C
:103C3C001232B8C004C005C006C007900237123358
:103C4C004C9002701232C6D003D002D001D00012B8
:103C5C00368D1232C612343940067F007EF8802D24
:103C6C009002391232B8C004C005C006C0079002D9
:103C7C003712334C9002701232C6D003D002D001EE
:103C8C00D00012368D1232C678111207629002499A
:103C9C0012372B9002371232B8C004C005C006C0D0
:103CAC000790023912334C9002701232C6D003D0F6
:103CBC0002D001D0001236941232C612345450077E
:103CCC007FFF7E07023D339002371232B8C004C02A
:103CDC0005C006C00790023912334C9002701232A4
:103CEC00C6D003D002D001D0001236941232C612C4
:103CFC00343940067F007EF8802D9002371232B89E
:103D0C00C004C005C006C00790023912334C9002A3
:103D1C00701232C6D003D002D001D00012369412E9
:103D2C0032C6781112076290024B12372B90023B6D
:103D3C0012334C9002641232C67807123456500675
:103D4C007FFF7E07802A90023B12334C9002641254
:103D5C0032C6780712343B40067F007EF880119003
:103D6C00023B12334C9002641232C678071207627F
:103D7C0090024D1237EF90023F1232B8C004C005CA
:103D8C00C006C00790023D12334C9002701232C62E
:103D9C00D003D002D001D00012368D1232C61234AC
:103DAC005450077FFF7E07023E1690023F1232B836
:103DBC00C004C005C006C00790023D12334C9002EF
:103DCC00701232C6D003D002D001D00012368D1240
:103DDC0032C612343940067F007EF8802D90023FA7
:103DEC001232B8C004C005C006C00790023D1233A1
:103DFC004C9002701232C6D003D002D001D0001207
:103E0C00368D1232C6781112076290024F1237EFBC
:103E1C0090023D1232B8C004C005C006C007900223
:103E2C003F12334C9002701232C6D003D002D00134
:103E3C00D0001236941232C6123454500AE47FFF6A
:103E4C007E07FDFC023EB790023D1232B8C004C0A2
:103E5C0005C006C00790023F12334C90027012321C
:103E6C00C6D003D002D001D0001236941232C61242
:103E7C003439400A7F007EF87DFF7CFF802D900254
:103E8C003D1232B8C004C005C006C00790023F12F4
:103E9C00334C9002701232C6D003D002D001D00045
:103EAC001236941232C67811120762EE540F900239
:103EBC0051F0A3EFF01233221205E2123459500ADA
:103ECC00E47FFF7E07FDFC023EF11233221205E275
:103EDC0012343E400A7F007EF87DFF7CFF80061284
:103EEC0033221205E2EE540F900253F0A3EFF09040
:103EFC0002851207CD000000727B017A0279411213
:103F0C0034D61207CD000000207FC212E64FEF60BE
:063F1C00037F01227F007B
:013F2200227C
:09EFBE0090022612082A7F0022AD
:0688940090022612082AE2
:10889A0090025C1234EC90022612080AE9247290C3
:1088AA00025F12377690025C1235C575F030A42447
:1088BA00CEF9741D35F0FA7BFF90025912082A90FE
:1088CA00025C12080A123717600C90025C1238D246
:1088DA0090025912082A78297C027D0190025912C5
:1088EA00080A7E007F3012039390025C1232DC3059
:1088FA00E4067E007F0080047E807F0090024B1297
:10890A0036F3123577FF64066005EF640770479007
:10891A000230E025E0F090022FE033F0900251128D
:10892A003722900232E025E0F0900231E033F090F5
:10893A000234E025E0F0900233E033F0900236E0B2
:10894A0025E0F0900235E033F0900238E025E0F0BF
:10895A00900237E033F09002261233E46404705731
:10896A0090025F1235C575F030A424F2F9741D35F2
:10897A00F0FA7BFF784D7C027D017E007F061203B0
:10898A009390025F1235C5FF640D6009EF640E60B3
:10899A0004EFB4100A90022F7404F0A3743AF0EFB3
:1089AA00640F6009EF64116004EFB4120A90022F99
:1089BA007404F0A37442F09002261233E4B4050C56
:1089CA0090022F1237221237211237219002851274
:1089DA0007CD000000847B017A0279291234D6126D
:1089EA0007CD000000067FC212E64FEF60037F0149
:1089FA00229002851207CD000000887B017A027955
:108A0A002F1234D61207CD0000001E7FC212E64F85
:108A1A00EF60037F012290026B1207CD00000097DE
:108A2A0012336712374512330E7FC212B493EF60C6
:108A3A00037F012290025C1234E37E0030E6047F59
:108A4A000180027F00EE44D0AB07FA90027E120743
:108A5A00CD00000098AF03900282EA12331B12E79E
:108A6A001DEF60037F012290027E1207CD000000F5
:108A7A009A1238437410F07FC212E71DEF60037F29
:108A8A00012290027E1207CD0000009B74801238EA
:108A9A000A7FC212E71DEF60037F012290024DE0B8
:108AAA00FEA3E0FFA3E0FCA3E0FDA3E0FAA3E0FB42
:0B8ABA0012B297EF60037F01227F00E3
:018AC500228E
:10EE620090005A12051145F0600A90005C120511DB
:08EE720045F07002C322D32217
:10EE7A0090006212051145F0600A900064120511B3
:08EE8A0045F07002C322D322FF
:10EE920090006A12051145F0600A90006C1205118B
:08EEA20045F07002C322D322E7
:06E9790090023612082A8C
:10E97F0090023912342F90023612337EFFAEF04ED2
:10E98F00600F900239123509FDD3EF9DEE95F040DF
:04E99F0002C322D3BA
:01E9A3002251
:064AC30090022612082AF1
:104AC9009002291234AB12369B90022C1234EC124C
:104AD900369B90022F1234BD9002291232DCE5F088
:104AE9007E0030E5047F0180027F00900234EEF001
:104AF900A3EFF07F409002261234CCE924D2123879
:104B09008690022912341F9000181234B690022997
:104B190012080A90000E12342590001A1234B612A7
:104B2900369B12EE62502212369BE9245AF9E43A76
:104B3900FAC003C002C001123429E92418123652FE
:104B4900D001D002D00312375B90022912080A90D3
:104B5900000412342590001CE5F08FF012054990ED
:104B6900022912337E12342890001EE5F08FF012CC
:104B7900054990022C12341F9000281234B6900275
:104B89002C12080A90000E12342590002A1234B60D
:104B990012369B12EE92502212369BE9246AF9E4EE
:104BA9003AFAC003C002C001123429E92428123696
:104BB90052D001D002D00312375B9002261233E49F
:104BC900B4050C123429E924281232F512370412DB
:104BD90034291238EB1235BA12342990001A120509
:104BE900119000021234B51238EBFF12349790007D
:104BF9001A1205119000061234B59000281235607A
:104C09009000181235934007123429EE1234991284
:104C1900369B12E979500C90022612337E12342801
:104C290012349712342912350CFF9000301234B621
:104C3900123381FF9000321234B612350CFF900006
:104C4900201234B6123381FF9000221234B6123684
:104C59009B12EE7A502212369BE92462F9E43AFA61
:104C6900C003C002C001123429E92420123652D0EF
:104C790001D002D00312375B1234299000201205AB
:104C890011FF9000081234B6900022120511FF900E
:104C9900000A1234B6900028120511FF90000C1278
:104CA90034B690002A120511FF90000E1234B69006
:104CB9000020120511FF9000101234B69000221244
:104CC9000511FF9000121234B6900028120511FF49
:104CD9009000141234B690002A120511FF900016A4
:104CE9001234B690026B1207CD0000000390023413
:104CF900123794C333CE33CED8F91237CD90001E74
:104D0900120511AEF07806CEC313CE13D8F91233BB
:104D19001612B493EF60037F012212342990001E0A
:104D2900120511543F25E025E0FE90001C120511E3
:104D3900900232123512A31233FD12E71DEF600300
:104D49007F012212342990001C120511E5F054FC50
:104D5900FEE47803C333CE33CED8F9FF1238EBFD26
:104D6900EE45F0FEEF4DFF90023212351BFB90022B
:104D790035E09002341236AE740812340512E71D7C
:104D8900EF60037F0122900235E09002341235432F
:104D990012342990001A12379B12331B12E71DEFA8
:104DA90060037F01229002851207CD0000003212B4
:104DB9003429E9242012339790028C1207CD000080
:104DC900000812502B60037F01229002851207CD43
:104DD90000000036123429E9242812339790028CF6
:104DE9001207CD0000000812502B60037F012290AA
:104DF900027E1207CD0000003A1234291204E6128D
:104E0900379E12331B12E71DEF60037F01229002C8
:104E19007E1207CD0000003C12342912350C1237DE
:104E29009E12331B12E71DEF60037F012290027E61
:104E39001207CD0000003D90022F12337E12379EDB
:104E490012331B12E71DEF60037F012290028512C6
:104E590007CD000001081234299002891233879086
:104E6900028C1207CD000000087FC212E64FEF60E6
:104E7900037F01229002851207CD0000010C9002E8
:104E89002F12339190028C1207CD000000087FC2C7
:104E990012E64FEF60037F0122123429900020129D
:104EA90035607C017D80120445AA04AB05123733B5
:104EB900ED4C600512373380151234299000201209
:104EC90035607C017D801204457F0C12377D90028C
:104ED9003212351BFB90026B1207CD00000206123D
:104EE90033671235B21238A7400A900232E0FEA3A6
:104EF900E0FF80047E007F081236B512B493EF609C
:104F0900037F01221234299000201235607C007D34
:104F1900C0120445AA04AB057D06123735ED4C6075
:104F2900077D061237358015123429900020123575
:104F3900607C007DC01204457F0612377D900232E5
:104F490012351BFB90026B1207CD000002061233CB
:104F5900D61238A7400A900232E0FEA3E0FF80048F
:104F69007E007F081236B512B493EF60037F0122E9
:104F79009002291232DC20E40C123429E92432127D
:104F890032F512370490022C1232DC20E40C123470
:104F990029E9242A1232F512370490022C123574A9
:104FA900FF64066008EF640760037F002290027EB9
:104FB9001207CD000000361234299000281250142F
:104FC90060037F012290027E1207CD0000010A12C0
:104FD900342990000C12501460037F012290027E44
:104FE9001207CD0000010E12342990001412051188
:104FF90025E0FEE5F033900282F0A3CEF07FC212E5
:0A500900E71DEF60037F01227F0026
:105013002212051125E0FEE5F033900282F0A3CEC3
:0F502300F07FC212E71DEF227FC212E64FEF228D
:03EFF9007F002274
:0EA7340090023012082A900233ECF0A3EDF0F0
:10A7420078397C027D017BFF7AEC79037E007F0AF7
:10A75200120393900233E0FEA3E0FFEE7044EF1485
:10A76200601A14602A240270391235319000B31233
:10A77200384A604812353D9000B380371235319027
:10A7820000B612384A603512353D9000B680241268
:10A7920035319000B912384A602212353D9000B925
:10A7A20080111235319000BC12384A600F12353DCB
:10A7B2009000BC12085390024312082AE49002351A
:10A7C200F0A3F0900235E0FEA3E0FFC39440EE94C4
:10A7D20000400302A855EF7802C333CE33CED8F936
:10A7E200FF90024312080AE92FF9EA3EFA78397C0F
:10A7F200027D017E007F04120393900234E0FEA3E7
:10A80200E0FCA3E04480FDEE4CFFED900241CFF06E
:10A81200A3EFF09002851207CD0000013B7B017A85
:10A822000279391234D61207CD0000000A7FC21213
:10A83200E64FEF60037F012212EFF97E00900237AC
:10A84200EEF0A3EFF0700C90023575F0011204D017
:10A8520002A7C5900237E0FEA3E0FF64024E700833
:08A862009002BEF0A37406F0A1
:01A86A0022CB
:06A3490090022612082A12
:10A34F001236A19002291234BD90002A1235607C7A
:10A35F00007D03120433AC06AD071234E625E0FF8F
:10A36F00E5F033FEC3EF9DEE9C7E0040047F0F802F
:10A37F00027F0A90022C12351BFB90026B1207CD45
:10A38F00000001001233671235B27408F0EB44A0DD
:10A39F00FFA3EA12331B12B493EF60037F012290E5
:10A3AF00026B1207CD0000010012336774071233DE
:10A3BF000E12352912B493EF60037F012290026BC6
:10A3CF001207CD00000100123367740212330E1210
:10A3DF00352912B493EF60037F01229002291235C1
:10A3EF005A123381D39FE5F09E400F90022DE05417
:10A3FF000364037005FE7F0180047E007F009002DE
:10A40F002C12351BFB90026B1207CD000001009040
:10A41F00026F12330AA312341712B493EF60037F43
:10A42F0001221236A19000B312371A70231236A1EF
:10A43F009000B612371A70181236A19000B9123761
:10A44F001A700D1236A19000BC12371A7002FF223B
:10A45F001236A1E4FDFC12A734EF60037F01221234
:10A46F0036A17D0112A49B60037F01221236A17DCC
:10A47F000212A49B60037F01221236A17D037C0090
:0BA48F0012A734EF60037F01227F0062
:08A49A00227C0012A734EF221E
:06AF680090022612082AE7
:10AF6E009002291234AB90022612080A90022C127B
:10AF7E0035679002261233E4B40509900229123285
:10AF8E00EF1237F790022C1238F1D39400E5F094BB
:10AF9E000640099002291232EF1237F79002291259
:10AFAE0032DC30E42190022C12355ABE0418BF3820
:10AFBE001590002A123560BE020CBF40099002297E
:10AFCE001232EF1237F79002291235C5FF6407606F
:10AFDE0004EFB406061232F21237F790026B120724
:10AFEE00CD00000040123367740812330E90022910
:10AFFE001232DCE5F07E0030E1047F0080027F013A
:10B00E0012331712B493EF60037F012290026B127A
:10B01E0007CD00000205123367740812330E90023A
:10B02E00291232DCE5F07E0030E1047F0180027FE0
:10B03E000012331712B493EF60037F012290026B5C
:10B04E001207CD00000208123367740E12330E90F1
:10B05E0002291232DCE5F07E0030E1047F0180022D
:10B06E007F0012331712B493EF60037F01227F002B
:01B07E0022AF
:10BBAF00E924D2F9E43AFA12350CFFAEF01204E6AA
:10BBBF00FDACF0D39FEC9E5002806912350CFFAEA6
:10BBCF00F0C3EE94044012EF94A0EE9405500A9047
:10BBDF000226E4F0A304F08052C3EF94D0EE940257
:10BBEF004010EE9404500B900226E4F0A37402F080
:10BBFF008039C3EF9480EE94024010EF94D0EE940E
:10BC0F000250089002261234FF8020C3EF94E0EE1A
:10BC1F0094014010EF9480EE940250089002261287
:10BC2F0036DD8007E4900226F0A3F0ED6480700308
:10BC3F00EC64076007E4900226F0A3F0900226E080
:10BC4F00FEA3E0FF7C007D1812043374F62FF97405
:10BC5F001A3EFA7BFF12D6BFEF60037F01229002DC
:10BC6F0026E07002A3E06003D38001C3920E12DEC0
:01BC7F003292
:01BC800022A1
:06A0700090022612082AEE
:10A076009002291235A81238FA90022C1235CB120A
:10A0860038FA90022F1235671238FA9002321236D9
:10A096002F9002291232DC90022C30E4071233F0A2
:10A0A60054FE80051233F044011235BA1235C2FF50
:10A0B60064016004EFB407071233ED440280051211
:10A0C60033ED54FD1235BA12357D90022C4007123D
:10A0D60033F0440880051233F054F71235BA1235BE
:10A0E6007D90022C40071233F0441080051233F0A5
:10A0F60054EF1235BA12385112356012359090026B
:10A106002C40071233F0442080051233F054DF123E
:10A1160035BA1235C2FF64066004EFB4070A123678
:10A126001D1232F54401800812361D1232F554FE16
:10A136008FF01205961235C2FF64086004EFB40969
:10A146000A12361D1232F54402800812361D1232EA
:10A15600F554FD8FF012059690022C12337E30E0F6
:10A166001212385112356012359050071233ED44F1
:10A176004080051233ED54BF1235BA90022C1233CB
:10A186007EE5F030E0129002321235C5700A1236C2
:10A196001D1232F54408800812361D1232F554F7A6
:10A1A6008FF01205969002321235C5FF64076018CB
:10A1B600EF64086013EF6409600EEF64106009EF46
:10A1C60064116004EFB4120A1239001233F644081F
:0FA1D60080081239001233F654F71235BA7F00A1
:01A1E5002257
:065A240090022612082A80
:105A2A009002291235CB1236C5E924D290022C12E3
:105A3A0037761236C590022F12362F90026B120754
:105A4A00CD00000040123367740612330E12337B06
:105A5A007E0030E6047F0180027F0012331712B401
:105A6A0093EF60037F012290026B1207CD000001C1
:105A7A0001123811F074031233797E0030E6047F84
:105A8A000180027F00EF4402FFEE1236BA12B4938D
:105A9A00EF60037F012290026B1207CD000002051E
:105AAA00123367740712330E12337B7E0030E00420
:105ABA007F0180027F0012331712B493EF60037FD5
:105ACA00012290026B1207CD00000205123367749F
:105ADA000612330E12337B7E0030E0047F0180020F
:105AEA007F0012331712B493EF60037F01229002F2
:105AFA006B1207CD00000205123367740412330ECD
:105B0A0012337B7E0030E0047F0180027F00123373
:105B1A001712B493EF60037F012290026B1207CD34
:105B2A000000020590026F12330A12337B7E0030A6
:105B3A00E2047F0180027F0012331712B493EF60F0
:105B4A00037F012290026B1207CD00000208123374
:105B5A0067740D12330E12337B7E0030E3047F012B
:105B6A0080027F0012331712B493EF60037F012281
:105B7A0090026B1207CD00000208123367740B12F1
:105B8A00330E12337B7E0030E0047F0180027F00F7
:105B9A0012331712B493EF60037F012290026B1243
:105BAA0007CD00000208123367740A12330E12334B
:105BBA007B7E0030E0047F0180027F0012331712DF
:105BCA00B493EF60037F012290026B1207CD0000AD
:105BDA0002111233671235B21235B27412125E64B0
:105BEA0060037F012290027E1207CD0000025190CD
:105BFA00022C12355A7C007D03120433EF7802CE50
:105C0A00C313CE13D8F9FF900282EE12331B12E7A8
:105C1A001DEF60037F012290026B1207CD00000284
:105C2A006D123367740712330E12337B7E0030E035
:105C3A00047F0180027F0012331712B493EF6003CE
:105C4A007F012212337BE5F030E05490022F1232AA
:105C5A00DC30E44B90022C123854120511D3941CF8
:105C6A00E5F09402503990026B1207CD0000024908
:105C7A00123367740CF0A3E4F0A3123745125E6482
:105C8A0060037F012290026B1207CD0000025212BC
:105C9A0033D6740212330E125E6C603B7F0122907F
:105CAA00026B1207CD00000249123367740C1237D7
:105CBA004712330E125E6C60037F012290026B1250
:105CCA0007CD000002521233D61234FB7FC212B43F
:105CDA0093EF60037F012290026B1207CD0000014F
:105CEA0000123367740312330E12337BE5F07E0021
:105CFA0030E3047F0180027F0012331712B493EF5E
:105D0A0060037F012290026B1207CD000002081285
:105D1A003367740F12330E12337BE5F07E0030E3E3
:105D2A00047F0180027F0012331712B493EF6003DD
:105D3A007F012290026B1207CD00000083123367A5
:105D4A00740512330E12337BE5F07E0030E3047FD4
:105D5A000180027F0012331712B493EF60037F01B0
:105D6A002290026B1207CD0000025812336EE5F042
:105D7A007E0030E0047F1880027F1412331712B4B9
:105D8A0093EF60037F012290026B1207CD0000029D
:105D9A005A12336EE5F07E0030E0047F1E80027FE7
:105DAA002812331712B493EF60037F01229002295D
:105DBA001235C51236C412E3E3EF60037F01229065
:105DCA0002291235741236C412D7E9EF60037F0133
:105DDA00229002291237E61236C412B58BEF6003FD
:105DEA007F012212350630E003D38001C3920E12DE
:105DFA0036C51271A7EF60037F012212350630E122
:105E0A0003D38001C3920E1236C512CA7AEF600319
:105E1A007F012212350630E203D38001C3920E12AB
:105E2A0036C512D0BDEF60037F012290026B1207C4
:105E3A00CD00000040123367740412330E12350687
:105E4A007E0030E4047F0180027F0012331712B40F
:095E5A0093EF60037F01227F0039
:105E630022F07FC212B493EF227FC212B493EF22C7
:0B86510090023EEDF090023B12082A60
:10865C009002421235A890023B12080A9002451271
:10866C00342F9002B9E030E0067E007F8080047EDB
:10867C00017F0090024A12374FFF6402600B900298
:10868C00421232DCE5F030E1067C007D0880047C8F
:10869C00007D0A900248ECF0A3EDF0EF6402600B51
:1086AC009002421232DCE5F030E1067E007F408021
:1086BC00047E007F3C90024C12374FFFBF010690A6
:1086CC000248123722123754FFBF021490023B1299
:1086DC00080AE92412F9EA3401FA90024512082A30
:1086EC009002451238F1FDACF0900248E0FEA3E098
:1086FC00FF120433E4FCFD90024E1207C112385BEA
:10870C00A31235E41238686010E47F01FEFDFCC052
:10871C0004C005C006C007800FE4FDFCFBFAF9F8A5
:10872C00C000C001C002C00312385BF9F8A31235B7
:10873C00E6D003D002D001D0001205E290024E1216
:10874C0007C190024512355AE4FCFD90024E1232DC
:10875C00C61238781235D51238686010E47F01FEE5
:10876C00FDFCC004C005C006C007800FE4FDFCFB87
:10877C00FAF9F8C000C001C002C0031235D5D0030D
:10878C00D002D001D000123875E47B02FA1235E128
:10879C00A804A905AA06AB0712390AEF5401FFE495
:1087AC00FEFDFC12387590023B1233E4FFB4040951
:1087BC0090023FE025E025E0F0EFB4050990023F80
:1087CC00E075F003A4F012390A90023FE0FD7C0042
:1087DC001204339002C2EEF0A3EFF09002C2E0FE5E
:1087EC00A3E0FF900240E0FAA3E0FB2FFFEA3E90EB
:1087FC0002C6F0A3EFF090023EE024C1FFE4340186
:10880C00FEE412340D12E71DEF60037F01221237D4
:10881C005424C91236CB12390A900282EE12331B41
:10882C0012E71DEF60037F0122900248E0FEA3E0F7
:10883C00FF64084E7004FDFF801CEF640A4E700448
:10884C007F018012900248E07004A3E0640470047D
:10885C007F0280027F03EF7B0025E025E0FA900287
:10886C004E1207A9EA4EFEEFFBAA0612375424CD8E
:10887C001236CBAF03900282EA12331B12E71DEFC4
:07888C0060037F01227F0061
:0188930022C2
:063F230090022612082A9C
:103F290012388D90022912082A123491E924A3F932
:103F3900E43AFA90022C12082A123491E924ABF9D6
:103F4900E43AFA90022F12082AE4900238F0A3F01A
:103F5900A3F01234751203B9FEC3940540037F031D
:103F69002290022F12337EE5F030E31E1234759051
:103F7900023AEEF074011203FF90022912080AE9CD
:103F8900240A1233F644101235BA1234751203B9E1
:103F990014607114700302406B1470030240D7243B
:103FA9000360030241411232D9FF7C0030E4047DF1
:103FB9003180027D6212359C30E4047F3180027FBA
:103FC900621235F41232D930E4047F0380027F068D
:103FD9001232CC30E4047F0180027F0212347590E2
:103FE90000031232D530E4047F0380027F061234C5
:103FF900759000041232D530E4057F010240607FDC
:10400900020240601232D9FF7C0030E4047D208036
:10401900027D6212359C30E4047F2080027F6212A7
:1040290035F41232D930E4047F0280027F0612325D
:10403900CC7F001234759000031232D530E4047F2E
:104049000280027F061234759000041232D530E4E2
:10405900047F0080027F021234751236397402021D
:10406900413C1232D9FF7C0030E4047D3180027D6D
:104079006212359C30E4047F3180027F621235F48C
:104089001232D930E4047F0380027F061232CC3029
:10409900E4047F0180027F0212347590000312321A
:1040A900D530E4047F0380027F0612347590000442
:1040B9001232D530E4047F0180027F0212347590F8
:1040C9000005EF120411E4123642E402413C1232B7
:1040D900D9FF7C0030E4047D2080027D6212359C8A
:1040E90030E4047F2080027F621235F41232D93025
:1040F900E4047F0280027F061232CC7F00123475FD
:104109009000031232D530E4047F0280027F061248
:1041190034759000041232D530E4047F0080027FA8
:1041290002123475900005EF120411900006E41292
:104139003645E4120411801E1232D9FF7C0030E4A6
:10414900047D3180027D6212359C30E4047F318028
:10415900027F621235F49002261233E424FB606474
:1041690004600302422B1232D9FF7C0030E4047D43
:104179003180027D6312359C30E4047F3180027FF7
:10418900631235F41232D930E4047F0380027F06CA
:104199001232CC30E4047F0180027F021234759020
:1041A90000031232D530E4047F0380027F06123403
:1041B900759000041232D530E4057F010242207F58
:1041C900020242201232D9FF7C0030E4047D3180A2
:1041D900027D6212359C30E4047F3180027F6212D5
:1041E90035F41232D930E4047F0380027F0612329B
:1041F900CC7F001234759000031232D530E4047F6D
:104209000380027F061234759000041232D530E41F
:10421900047F0080027F021234751236397402124B
:1042290004111232D9FFAEF020E41CEE20E018127E
:1042390034759000047408120411900235E0540F8B
:104249004480FFE41235F590026B1207CD0000009F
:104259001E1233D61234FB7FC212B493EF60037F70
:10426900012290027E1207CD0000001F900233E068
:10427900FEA3E04E12360ACF12331B12E71DEF6080
:10428900037F0122900232A3E0C4540FC454F0FF0B
:10429900A3A3E0C4540F4FFF7E00A312351BFB906C
:1042A900026B1207CD000002091233D67408F0A37D
:1042B90012341712B493EF60037F012290026B123C
:1042C90007CD00000144123367740BF0A3E4F0A397
:1042D900740512352812B493EF60037F012290020E
:1042E9006B1207CD000001C01233671236D912369E
:1042F900DC7FC212B493EF60037F012290022C127B
:1043090033E4FF1237E92F12347EE4FD128651EFB0
:1043190060037F01229002C2E0FEA3E0FF90023811
:10432900EE8FF01204D090022F12350930E4047F89
:104339000180027F00EF04FF12347590000412031C
:10434900D2FEEF8EF0A412347E7D04128651EF6006
:10435900037F012212346490000512347B7D01121F
:104369008651EF60037F01221234649000061234F3
:104379007B7D02128651EF60037F01221234649023
:10438900000712347B7D06128651EF60037F0122FC
:10439900900236E4F0A37408F090027E1207CD0073
:1043A9000001D1900282E4F074081244ED60037FA9
:1043B90001229002367411F0A3E4F090027E1207F4
:1043C900CD000001D29002827411F0A3E4F07FC203
:1043D90012E71DEF60037F0122900236E4F0A37417
:1043E90080F090027E1207CD000001D3900282E492
:1043F900F074801244ED60037F012290023674222A
:10440900F0A374AAF090027E1207CD000001D490A7
:1044190002827422F074AA1244F660037F0122908A
:1044290002261233E4B404067E827F2080047E4192
:104439007F2090023612351BFB90027E1207CD00B9
:104449000001DD12341412E71DEF60037F01229091
:1044590002261233E4B404067E807F2080047E3075
:104469007F2090023612351BFB90027E1207CD0089
:104479000001DE12341412E71DEF60037F01229060
:10448900027E1207CD000001F89002C6123609CF4C
:1044990012331B12E71DEF60037F012290027E1287
:1044A90007CD000001F99002C7E0240FFE9002C673
:1044B900E03400900282F0CE1244F660037F0122BC
:1044C9009002C6E475F0101204D090022F12337EC8
:1044D900E5F030E30C90023AE0FF123475EF120375
:0344E900FF7F0052
:1044EC0022A3F07FC212E71DEF22A3F07FC212E7D6
:0344FC001DEF228F
:06A86B0090022612082AEB
:10A8710090026B1207CD000000401233677405127D
:10A88100330E7E00300E03FF80027F001233171259
:10A89100B493EF60037F012290026B1207CD000099
:10A8A100004090026F12330A300E07A216E433FF04
:10A8B10080027F0112A98F60037F0122123571305E
:10A8C100E003D38001C3920F90026B1207CD000009
:10A8D10001421233D604F0300E07A20FE433FF8099
:10A8E100027F0012A98F60037F012212357130E1CE
:10A8F10003D38001C3920F90026B1207CD000001B8
:10A901004290026F12330A300E07A20FE433FF8028
:10A91100027F01EF3395E01236BA12B493EF600370
:10A921007F01229002261233E4B40303D38001C3D2
:10A93100920F90026B1207CD00000144123367742D
:10A941000612330E300E07A20FE433FF80027F00A0
:10A95100EF3395E01236BA12B493EF60037F012210
:10A9610090026B1207CD00000205123367740312C7
:10A97100330E7E00300E03FF80027F001233171268
:0DA98100B493EF60037F01227F2812EF5F87
:10A98E0022EF3395E0900273F0A3EFF07FC212B482
:03A99E0093EF2212
:10A9A10090022312082A1235221203B97002FF22E3
:10A9B100E41203FF123522C20E12A86BEF60037F6F
:10A9C1000122123522128AC6EF60037F012212355D
:10A9D100227D017C00125032EF60037F012212358B
:10A9E10022E4FDFC125032EF60037F012212352276
:10A9F10012BC81EF60037F012212352212685CEFE5
:10AA010060037F012212352212C07EEF60037F01B5
:10AA110022123522123916EF60037F0122123522EC
:10AA210012EFBEEF60037F0122123522128894EFEC
:10AA310060037F01221234C7E9246212388612347E
:10AA4100C7E92493123886123522124AC3EF6003F4
:10AA51007F012212352212A349EF60037F012212E6
:10AA6100352212AF68EF60037F012212352212BB3B
:10AA7100AFEF60037F012212352212A070EF600355
:10AA81007F012212352212D1B0EF60037F01221221
:10AA91003522123F23EF60037F0122123522125A21
:10AAA10024EF60037F012212352212DA8CEF60035A
:10AAB1007F01227F647E0012C13FEF60037F01228C
:10AAC100123522D20E12A86BEF60037F01227F00A4
:01AAD1002262
:10DCEE0090030412082A1237A5124AC3EF60037F6D
:10DCFE0001221237A512A349EF60037F01221237CA
:10DD0E00A512AF68EF60037F01221237A512BBAFD9
:10DD1E00EF60037F01221237A512A070EF60037F20
:10DD2E0001221237A5125A24EF60037F01227F00D1
:01DD3E0022C2
:10E8C60090030712082A12391012DCEEEF60037F5C
:10E8D600012212391012E920EF60037F012212395A
:0DE8E60010123F23EF60037F01227F00220C
:10EA500090022A12082A90022D12080AC003C0024E
:10EA6000C00190022A12080A9000B3120883900293
:0AEA70002A12080AE4FDFC02A73494
:10E9A40090022A12082A90022D12080AC003C002FB
:10E9B400C00190022A12080A9000B612088390023D
:0BE9C4002A12080A7D017C0002A73423
:10E9CF0090022A12082A90022D12080AC003C002D0
:10E9DF00C00190022A12080A9000B912088390020F
:0BE9EF002A12080A7D027C0002A734F7
:10E9FA0090022A12082A90022D12080AC003C002A5
:10EA0A00C00190022A12080A9000BC1208839002E0
:0BEA1A002A12080A7D037C0002A734CA
:10D6BF0090022A12082A90022A1237AB700C7BFFB5
:10D6CF007A1A79F690022A12082A9002851207CD4B
:10D6DF000000002290022A1234D31207CD0000005E
:10D6EF00107FC212E64FEF60037F01229002851276
:10D6FF0007CD0000002C90022A12339190028C1259
:10D70F0007CD000000087FC212E64FEF60037F01D4
:04D71F00227F002243
:10DE320090026B1207CD0000002A1233677403129E
:10DE4200330E7E00300E03FF80027F001233171262
:10DE5200B493EF60037F012290026B1207CD0000A2
:10DE6200002A1233D604F07E00300E03FF80027FB8
:10DE72000012331712B493EF60037F01227F002256
:10E2A80090022A12082A90022A1237AB700C7BFFC0
:10E2B8007A1B796E90022A12082A9002851207CDDD
:10E2C8000000012090022A1234D31207CD0000006A
:0FE2D800107FC212E64FEF60037F01227F00220A
:10EAF800AB0790026B1207CD000001291233671291
:10EB080035B27408F0AF03A3E412331B12B493EFC9
:08EB180060037F01227F00224F
:10EB200090026B1207CD000001281233D604F07E4C
:10EB300000300E03FF80027F0012331712B493EFF0
:08EB400060037F01227F002227
:10EA7A0090027E1207CD00000063300E067E027FF0
:10EA8A00F980047E007F00900282EE12331B12E7A7
:0AEA9A001DEF60037F01227F0022C0
:10DD3F0090027E1207CD00000065300E067E027F36
:10DD4F00F980047E007F00900282EE12331B12E7EF
:10DD5F001DEF60037F012290027E1207CD000000AD
:10DD6F0067300E067E027FF980047E007F009002EE
:10DD7F0082EE12331B12E71DEF60037F01227F003B
:01DD8F002271
:10E2E70090022A12082A90022A1237AB700C7BFF81
:10E2F7007A1B797E90022A12082A9002851207CD8E
:10E307000000006890022A1234D31207CD000000E3
:0FE31700087FC212E64FEF60037F01227F0022D2
:10EB480090026B1207CD0000006C1233D604F07EE1
:10EB580000300E03FF80027F0012331712B493EFC8
:08EB680060037F01227F0022FF
:10E3260090022A12082A90022A1237AB700C7BFF41
:10E336007A1B798690022A12082A9002851207CD46
:10E346000000012A90022A1234D31207CD000000E1
:0FE35600087FC212E64FEF60037F01227F002293
:10E3650090022A12082A90022A1237AB700C7BFF02
:10E375007A1B798E90022A12082A9002851207CDFF
:10E385000000005090022A1234D31207CD0000007D
:0FE39500127FC212E64FEF60037F01227F00224A
:10E3A40090022A12082A90022A1237AB700C7BFFC3
:10E3B4007A1B79A090022A12082A9002851207CDAE
:10E3C400000003F090022A1234D31207CD0000009B
:0FE3D4000A7FC212E64FEF60037F01227F002213
:10EB700090026B1207CD000003C01233D604F07E62
:10EB800000300E03FF80027F0012331712B493EFA0
:08EB900060037F01227F0022D7
:1044FF007B017A0279CE12EE16EF60037F01221252
:10450F0037B2C39490EE94004009D3EF9494EE9495
:10451F000040037F05221237B264904E6006EF64AD
:10452F00914E70067E007F0180047E007F00900216
:10453F00B8EEF0A3EFF04E7C0060047D0C80027D9E
:10454F000FE4FBFA7F01FE12C9E8EF60037F01223F
:10455F007F0112EF5FEF60037F01227B017A027907
:10456F00C012E6EAEF60037F012290027E1207CDB0
:10457F00000000949002827407F0742F124AAA6010
:10458F00037F012290026B1207CD000000901238BA
:10459F001112330B124A8E60037F012290026B12AD
:1045AF0007CD0000009012336704123308124A8EB1
:1045BF0060037F012290026B1207CD000000901262
:1045CF0033677402123308124A9C60037F01227F03
:1045DF000112EF5FEF60037F012290027E1207CD81
:1045EF00000001A39002827418F07467124AB3603E
:1045FF00037F012290027E1207CD000001A77440B5
:10460F00124A7F60037F012290027E1207CD0000C5
:10461F000093900282742FF07480124AAA60037F75
:10462F00012290027E1207CD000001A77420124ACA
:10463F007F60037F012290026B1207CD00000005FF
:10464F00123367740812330E1238B2123601123356
:10465F00B212B493EF60037F012290026B1207CD69
:10466F00000001A7123367740C12330E1235FD12BE
:10467F00331B12B493EF60037F012290026B12077A
:10468F00CD000001C0123367740B12330E1235FDCB
:10469F0012331B12B493EF60037F012290026B124F
:1046AF0007CD000001FB123367740712330E123867
:1046BF00B212360112331B12B493EF60037F012243
:1046CF0090026B1207CD0000030090026F12330AA5
:1046DF001235FD12331B12B493EF60037F0122904A
:1046EF00026B1207CD000002A0123367740612335B
:1046FF000E1235FD12331B12B493EF60037F0122AC
:10470F0090026B1207CD000001A3123367740B12D6
:10471F003747F09002B8E07002A3E07E0060047F9C
:10472F000080027F0312331712B493EF60037F01EF
:10473F002290026B1207CD0000003E123300124A86
:10474F009C60037F01221237B264934E700A7C1B68
:10475F007D847E1B7F848010EF64924E70067E3BBB
:10476F007F8480047E007F049002BA12351BFB9079
:10477F00027E1207CD000001A012341412E71DEFC4
:10478F0060037F01229002BA741AF0A374E4F090D0
:10479F0002C47472F0A37477F090027E1207CD00FA
:1047AF000001A1900282741AF074E4124AB36003FC
:1047BF007F012290027E1207CD000001A29002C459
:1047CF00123609CF12331B12E71DEF60037F012250
:1047DF0090027E1207CD000001D590028274EAF09C
:1047EF00A374C2F0FF12E71DEF60037F0122900256
:1047FF006B1207CD000001A71233D61236D9124A19
:10480F009560037F012290026B1207CD0000000517
:10481F001233D61235B27410F0124ABC60037F0106
:10482F002290026B1207CD00000005123367740B44
:10483F001234F6124ABC60037F012290026B1207FA
:10484F00CD00000006123367740E1234F67FC012CB
:10485F00B493EF60037F012290027E1207CD000018
:10486F0000129002821234FF7FC012E71DEF600327
:10487F007F012290026B1207CD00000300123367F5
:10488F00740212330E12352912B493EF60037F01B5
:10489F002290026B1207CD00000300123367740CD5
:1048AF00123308124A9560037F012290026B1207A0
:1048BF00CD000002A0123367740712330E12352990
:1048CF0012B493EF60037F012290027E1207CD0096
:1048DF000003FE1238097FC212E71DEF60037F014C
:1048EF002290026B1207CD000000401233670412B2
:1048FF003308124AA360037F012290026B1207CD87
:10490F000000014212336704123308124AA36003F6
:10491F007F012290026B1207CD0000020512336750
:10492F00740312330E12352912B493EF60037F0113
:10493F002290026B1207CD000000401233677408FB
:10494F001233087FC212B493EF60037F01229002EB
:10495F006B1207CD0000001C123367740A12330864
:10496F007FC212B493EF60037F012290026B120794
:10497F00CD0000001C123367740A12330E12352952
:10498F0012B493EF60037F01221237B2EE7038EF4B
:10499F00246F600A24FE60042403702B801C900295
:1049AF00D0E4F0A37416F09002D4E4F0A37444F0B2
:1049BF009002D2E4F0A304F080191238BD7407F00E
:1049CF00A374A0F0E480061238BDF0A3F09002D2D9
:1049DF00F0A3F09002D1E04409F09002D5E0440832
:1049EF00F090027E1207CD0000001E9002D012360A
:1049FF00091233B112E71DEF60037F012290027E8F
:104A0F001207CD0000003C9002D41236091233B1C8
:104A1F0012E71DEF60037F012290026B1207CD009A
:104A2F00000045123367740D12330E9002D2123606
:104A3F00151233B112B493EF60037F0122E4900299
:104A4F00BEF0A3F09002BCF0A3F09002CAF0A3F066
:104A5F009002C8F0A3F09002CCF0A3F0C216FBFABC
:104A6F00FDFCFFFE12B760EF60037F01227F002283
:104A7F00900282F0A37408F07FC212E71DEF227F2D
:104A8F00C012B493EF227FC212B493EF227FC012F1
:104A9F00B493EF227FC212B493EF22A3F07FC01220
:104AAF00E71DEF22A3F07FC212E71DEF227FC01296
:044ABF00B493EF229B
:10E4210090022A12082A9002781207CD00000000FB
:10E431001236EA7FC012E74FEF60037F012290029C
:10E441002A12080A1204E6FF900279E5F0F0A3EF20
:0DE45100F07BFF7AEB79E612E6B77F002240
:10EE16009002781207CD000000041236EA7FC01275
:0BEE2600E74FEF60037F01227F002216
:10E6EA0090022A12082A9002781207CD0000000729
:10E6FA001236EA7FC012E74FEF60037F01229002D1
:10E70A002A12080A1204E65401FFE48FF012059651
:03E71A007F00225B
:10E5B00090027E1207CD000000721238097FC0124F
:10E5C000E71DEF60037F012290027E1207CD00005D
:10E5D000007212384304F07FC012E71DEF60037F22
:05E5E00001227F002272
:10C57E0090026B1207CD000001A0123367740612F1
:10C58E0033087FC212B493EF60037F012290026BD7
:10C59E001207CD000001A7123367740D12330E126D
:10C5AE00352912B493EF60037F012290027E1207A9
:10C5BE00CD000000701238097FC012E71DEF600336
:10C5CE007F012290027E1207CD00000070123843C8
:10C5DE0004F07FC012E71DEF60037F012290026B13
:10C5EE001207CD000001A7123367740D1233087FB6
:10C5FE00C212B493EF60037F012290026B1207CD3B
:10C60E00000001A0123367740612330E1235291280
:0BC61E00B493EF60037F01227F002235
:10DB420090022AEFF0FB90027E1207CD0000003A0D
:10DB52007E00BB03047F0180027F00900282EE12EE
:10DB620033B212E71DEF60037F012290027E12079B
:10DB7200CD0000002A90022AE0FFB403067E007F57
:10DB8200008000123843EFF07FC012E71DEF600300
:07DB92007F012212C57E2273
:10DAE90090022AEFF0BF102590027E1207CD0000A8
:10DAF900003C300E0A9002D4E0FEA3E0FF80047ED1
:10DB0900FF7FFF900282EE1233B202E71D90026B93
:10DB19001207CD0000003C90022AE0FF123367EFA4
:10DB290012330E7E00300E047F0080027F019002C6
:09DB390073EE1233B212B4932210
:10D84C0090026B1207CD0000004012336774051272
:10D85C00330E7E00300E03FF80027F00123317124E
:10D86C00B493EF60037F0122300E057F5012EF5FFF
:10D87C0090026B1207CD0000004390026F12330A26
:10D88C007E00300E047F0080027F0112331712B429
:10D89C0093EF60037F0122200E057F2812EF5F7F3C
:02D8AC00002258
:10EBBF00AB0790026B1207CD000000001233677491
:10EBCF00041234FDAF03A3E412331B12B493EF60AE
:07EBDF00037F01227F0022E9
:10B9280012388D1232DFE5F07E0030E5047F0180A9
:10B93800027F00900230EEF0A3EFF0ED60037F008D
:10B948002290026B1207CD000000421233D6740613
:10B9580012352812B493EF60037F012290026B1214
:10B9680007CD00000042123367740712330E1235F8
:10B978002912B493EF60037F01229002781207CD59
:10B98800000000027A02792E1236E87FC212E74FD1
:10B99800EF60037F0122900230E0FCA3E0FD4C90B1
:10B9A800022E60051238208004E0C4540F7E005433
:10B9B80003FF90022EEEF0A3EFF090022EE0700449
:10B9C800A3E064027005FE7F0180047E007F009082
:10B9D800022EEEF0A3EFF0C374499DFFE49C1233EE
:10B9E8005D740D1234FD90022E1236151233B11209
:0AB9F800B493EF60037F01227F008B
:01BA02002221
:05BA030090022EEDF0A1
:10BA080012388D1232DFE5F07E0030E5047F0180C8
:10BA1800027F00900231EEF0A3EFF090022EE0706A
:10BA280002FF2290000C120511C3E5F094055006A0
:10BA38007C007D0080047C007D0290022EE075F081
:10BA480004A4FFE5F04CFEEF4DFFA3EEF0A3EFF0EA
:10BA58001232DFFFAEF020E40A90022FE0F0A3E0FC
:10BA68004401F0EE20E30A90022FE0F0A3E0442026
:10BA7800F090026B1207CD000000421233D6740614
:10BA8800F090022F123615CF12331B12B493EF60C9
:10BA9800037F012290026B1207CD0000004212338F
:10BAA8006774071233087FC212B493EF60037F01F3
:10BAB80022900231E0FEA3E0FFC3744912335974A7
:10BAC8000D1234FD1237DE12B493EF60037F0122AA
:02BAD8007F00ED
:01BADA002249
:10EA250090022A12082A90022DEDF012BA03EF6027
:10EA3500037F012290022A12080A90022DE0FD129E
:0BEA4500B928EF60037F01227F002250
:05DC9B0090030AEFF008
:10DCA0009002781207CD000000431236E47FC212C2
:10DCB000E74F90026B1207CD0000004312336774E8
:10DCC000021236DB90030AE0FF900273E412331B6A
:10DCD00012B493EF60037F01229002781207CD0007
:0DDCE0000000431236E47FC212E74F7F00C0
:01DCED002214
:10149600010200320084FF6B00E1FFB4FF44FFDC71
:1014A60000E100000000000000400200020001FC14
